:100000000C94CB010C94FC010C94FC010C94FC01AD
:100010000C94FC010C94FC010C94FC010C94FC016C
:100020000C94FC010C94FC010C94FC010C94FC015C
:100030000C94FC010C94FC010C94FC010C94FC014C
:100040000C94FC010C94FC010C94FC010C94FC013C
:100050000C94FC010C94FC010C94FC010C943D0EDE
:100060000C94FC010C9451150C9479140C94FC0123
:100070000C94FC010C94FC010C94FC010C94FC010C
:100080000C94FC010C94FC010C94FC010C94FC01FC
:100090000C941E150C943A140C94FC010C94E21769
:1000A0000C94FC010C94FC010C94FC010C94FC01DC
:1000B0000C94FC010C94FC010C94FC010C94FC01CC
:1000C0000C94FC010C94FC010C94FC010C94EB14BA
:1000D0000C94FB130C94FC010C94B8140C94BC13FA
:1000E0000C94FC01BB10BF10C310C710CB10CF1075
:1000F000D310FE1105120C1213121A123212211211
:100100003212281238193B192E19321972193F1957
:10011000431949194D19511957195B195F1972196A
:10012000651969196D190C9405120C940E020C9442
:100130002E070C9412070C94FD020C94CB100C9417
:10014000E9080C9469190C942A030C942F160C944A
:10015000A6110C94A2100C9400160C9486040C9416
:10016000C2090C9407020C94B7150C945B190C94FB
:1001700057190C9451190C9477120C94F6060C94A0
:10018000DA100C94D7110C94A2120C945F190C94F1
:1001900030110C9485110C9439030C941A120C94A0
:1001A000DA060C94A8150C94A2060C94BB100C94BF
:1001B000FE110C9427030C94C7100C9492030C941A
:1001C00028120C940A020C9436030C9432190C94E5
:1001D0000C120C94C3100C94A7150C949B050C9452
:1001E000CF040C94D3100C946D190C9451110C94F1
:1001F000CF100C9413120C9443190C9404020C9419
:10020000E1050C9421120C94F4090C94BE120C9488
:1002100038190C9416130C94BF100C94FF010C9415
:1002200032120C9430030C942E190C943B190C943C
:100230004D190C94DE120C94CB150C9483040C9481
:1002400044130C9482120C9495030C94B41C0C94DB
:1002500089040C94D3150C9472190C9449190C94BC
:1002600035120C94BE060C948F030C943F190C9419
:100270002D030C94D00A0C94C5050C94ED110C942C
:10028000FE010C9465190C9433030C947206000063
:10029000090A02080B0C0D07060304010000000008
:1002A000000000000000000000000000000000004E
:1002B0000000000000000000000011100F0000000E
:1002C000000000000000000000000000000000002E
:1002D0000000000000002200250028002B002E0056
:1002E0003100340002010000050108010B0100008B
:1002F0002100240027002A002D00300033000101D6
:100300000000040107010A010505050507050808A5
:100310000808020202020A0A08080404040401018F
:1003200001010101010103030303030303030407A4
:1003300007070C0C0C0C0C0C0C0C0202020206063B
:100340000606060606060B0B0B0B0B0B0B0B01022E
:1003500010202008081020401020408002010201D7
:10036000080402010102040810204080804020108F
:1003700008040201800402018040201008040201E8
:100380000804020101020408102040800102040850
:1003900010204080B41C11241FBECFEFD1E2DEBF7D
:1003A000CDBF00E00CBF14E0A0E0B2E0ECE2FCE462
:1003B00000E00BBF02C007900D92A634B107D9F739
:1003C0002DE0A6E4B4E001C01D92A53AB207E1F722
:1003D00011E0CBECD1E000E006C021970109802FAD
:1003E000FE010E94DE25CA3CD10780E00807A9F77C
:1003F0000E94741A0C94CE200C94000008958A5721
:100400009B4FFC01808108958EEC92E008958FEE61
:1004100092E00895FC0186A197A10895AF92BF9242
:10042000CF92DF92EF92FF920F931F93CF93DF93C0
:1004300000D01F921F92CDB7DEB7643671053CF035
:10044000FC01EA57FB4F2081222309F477C0DA012F
:100450007B018C01BC01615E7D4FED91FC910190AF
:10046000F081E02DCA011995680128EEC21A2DEF1E
:10047000D20A2FEFD6012C93F801E75EFD4F2EEF45
:10048000208331968083319690833196292F280FCF
:10049000209520833196E0821696FC9245E050E04C
:1004A00020E030E0DC011696A417B50734F0619126
:1004B000260F311D4F5F5F4FF7CF7C01B8E0EB0E89
:1004C000F11C800F911FFC01E15EFD4F2095208300
:1004D000E1E0EE16E2E0FE06BCF45601C5018C191F
:1004E0009D098E159F056CF5D80112968D919C91F2
:1004F0001397F50161915F01DC01ED91FC91019091
:10050000F081E02D1995EACF82E392E09A83898306
:1005100083E08B8383E093E09D838C83D801ED910E
:10052000FC910190F081E02DAE014F5F5F4F67E0DD
:1005300070E0C80119958FEF9FEF04C080E090E054
:1005400001C0C7010F900F900F900F900F90DF9197
:10055000CF911F910F91FF90EF90DF90CF90BF90C0
:10056000AF900895CF92DF92EF92FF92FC0110823C
:10057000118212821382DB0120E030E04D9150E0C5
:10058000022E02C0440F551F0A94E2F7052E000CFC
:10059000660B770BC080D180E280F3804C295D2907
:1005A0006E297F294083518362837383285F3F4F85
:1005B0002032310519F7FF90EF90DF90CF9008952A
:1005C000CF92DF92EF92FF9220E030E06A017B0150
:1005D000022E04C0F694E794D794C7940A94D2F7F5
:1005E000FC01C192CF01285F3F4F2032310571F7E6
:1005F000FF90EF90DF90CF900895CF93DF93EC01C1
:1006000020E030E045E853E46C817D818E819F815C
:100610000E94902360935304709354048093550474
:100620009093560427EC3BE447E251E46A8D7B8DBE
:100630008C8D9D8D0E94902360934F047093500485
:100640008093510490935204DF91CF9108958CE3ED
:1006500093E008958DE593E0089583E793E008958E
:1006600086E092E0089584E993E0089585EB93E0B5
:1006700008954F925F926F927F928F929F92AF9266
:10068000BF92EF92FF920F931F93CF93DF9300D00F
:100690001F92CDB7DEB77C018B01FB018191BF01B9
:1006A000F7018283CE0101960E94B20289819A816C
:1006B000AB81BC814C015D01F5E08F0E911CA11C4A
:1006C000B11CA8014C5F5F4FFA0125E030E0290121
:1006D000612C712C481459046A047B0428F461814C
:1006E00061932F5F3F4FF3CFF801E80FF91F14829A
:1006F000F7015483438305960F900F900F900F904E
:10070000DF91CF911F910F91FF90EF90BF90AF902D
:100710009F908F907F906F905F904F90089588EC9E
:1007200093E0089589EE93E008954F925F926F925F
:100730007F928F929F92AF92BF92CF92DF92EF9271
:10074000FF920F931F93CF93DF93CDB7DEB72C9714
:100750000FB6F894DEBF0FBECDBF7C018B01DB016D
:100760008C9190E0F7019383828311962C91922BC8
:10077000938382836E5F7F4FCE0101960E94B20207
:1007800089809A80AB80BC8024013501F6E04F0E51
:10079000511C611C711C98012B5F3F4FF90186E0D1
:1007A00090E0AC0160E070E0441555056605770502
:1007B00020F4418141930196F4CFF801E80DF91D31
:1007C0001582D70115963C932E931497B4016A5F56
:1007D0007F4F600F711FCE0105960E94B202BAE0F2
:1007E0008B0E911C4D805E806F807884A401092C53
:1007F000000C660B770B440D551D661D771DD80147
:10080000A80DB91DCD01801B910B5C01C12CD12C11
:10081000A416B506C606D70628F48D91FD013297B9
:100820008083F0CF5401A40CB51CB8016A0D7B1D68
:10083000FB0131971082C4010197800F911FF701CE
:1008400097838683CE0109960E94B20295012C5FA0
:100850003F4F89859A85AB85BC852901032E000C05
:1008600066087708480E591E6A1E7B1EF5013396EE
:10087000E00FF11FA9014A01A12CB12C84149504A9
:10088000A604B70428F4618161934F5F5F4FF3CFF3
:10089000820F931FF801E80FF91FDF0111971C92D7
:1008A00021503109020F131FD70119961C930E9383
:1008B00018972181428150E060E070E0BA0155272D
:1008C0004427522B2081422B2381722BF701428730
:1008D00053876487758704962C960FB6F894DEBF0D
:1008E0000FBECDBFDF91CF911F910F91FF90EF9081
:1008F000DF90CF90BF90AF909F908F907F906F9040
:100900005F904F90089582E094E0089583E294E030
:100910000895FC01DB014C9150E060E070E04283FF
:1009200053836483758311968C911197582B42835E
:1009300053836483758312968C911297682B42833C
:1009400053836483758313968C911397782B42831A
:1009500053836483758314964C91149750E060E040
:1009600070E0468357836087718715968C91159741
:10097000582B468357836087718716968C911697FC
:10098000682B468357836087718717968C91782BE5
:10099000468357836087718788E090E00895DC0183
:1009A000FB0112968C911297808313968C9113976A
:1009B000818314968C911497828315968C91159748
:1009C000838316968C911697848317968C9117972C
:1009D000858318968C911897868319968C918783B6
:1009E00088E090E008958F929F92AF92BF92CF924D
:1009F000DF92EF92FF920F931F93FC01DB01C38004
:100A0000C294C69427E0C2228C2C912CA12CB12C2C
:100A10008D929D92AD92BC921397048110E020E0DC
:100A200030E043E0000F111F221F331F4A95D1F71A
:100A300068017901C828D928EA28FB28CD92DD92DF
:100A4000ED92FC921397458150E060E070E01BE06E
:100A5000440F551F661F771F1A95D1F78A019B0116
:100A60000C291D292E293F290D931D932D933C936D
:100A7000139746814F7050E060E070E083E1440FCF
:100A8000551F661F771F8A95D1F7402B512B622B7C
:100A9000732B4D935D936D937C9313978681829511
:100AA0008F7007810F7710E020E030E094E0000FB6
:100AB000111F221F331F9A95D1F7082B011511051D
:100AC00021053105A1F0005813402109310997E1B2
:100AD000000F111F221F331F9A95D1F7042B152BDE
:100AE000262B372B0D931D932D933C931397478102
:100AF000407850E060E070E0742F66275527442767
:100B00000D911D912D913C911397402B512B622BF0
:100B1000732B4D935D936D937C93139788E090E0D6
:100B20001F910F91FF90EF90DF90CF90BF90AF900B
:100B30009F908F900895EF92FF920F931F93CF9302
:100B4000DF938C017B01BC016E5F7F4FC7010E9468
:100B5000F304EC01B8016A5F7F4FC7018C0F9D1F42
:100B60000E94F304C80FD91FB801665F7F4FC70109
:100B70008C0F9D1F0E94F3048C0F9D1FDF91CF915E
:100B80001F910F91FF90EF900895EF92FF920F93B6
:100B90001F93CF93DF937C01EB0102960E949B058C
:100BA0008C01BE01680F791FC70140960E949B050A
:100BB000800F911FDF91CF911F910F91FF90EF90C8
:100BC00008950F931F93CF93DF938C01EC0126962A
:100BD000CE010E94C505D8019496ED91FC919597A0
:100BE000CE01DF91CF911F910F9119948F929F9217
:100BF000AF92BF92CF92DF92EF92FF92CF93DF93AB
:100C0000EC014A015B01DB01CA0157E1B595A795EB
:100C1000979587955A95D1F79927AA27BB270097CB
:100C2000A105B10521F080589C4FAF4FBF4F1882EE
:100C300019821A82B501A40125E0440F551F661FD1
:100C4000771F2A95D1F74B83B501A40133E0759541
:100C50006795579547953A95D1F74C83B501A4010F
:100C6000EBE07595679557954795EA95D1F74D83D4
:100C7000B501A401F3E17595679557954795FA95E8
:100C8000D1F7242F2F70AC01BD0134E0440F551F64
:100C9000661F771F3A95D1F7422B4E836C017D0179
:100CA00044E0F594E794D794C7944A95D1F720E0AF
:100CB00030E0A901C501B4010E942C2287FD02C0C9
:100CC000CF8203C08C2D80688F8388E090E0DF9115
:100CD000CF91FF90EF90DF90CF90BF90AF909F901B
:100CE0008F900895EF92FF920F931F93CF93DF930E
:100CF0007C018B01FC014281538164817581C801B3
:100D00000E94F605EC01F7014681578160857185E7
:100D1000C8018C0F9D1F0E94F605C80FD91FF7014F
:100D20004285538564857585C8018C0F9D1F0E947F
:100D3000F6058C0F9D1FDF91CF911F910F91FF90B2
:100D4000EF900895EF92FF920F931F93CF93DF934D
:100D50007C01EB0102960E9472068C01BE01680FB5
:100D6000791FC70140960E947206800F911FDF9184
:100D7000CF911F910F91FF90EF90089562E08091C5
:100D8000BE0C9091BF0C0E94E40E62E08091BA0C00
:100D90009091BB0C0E94E40E62E08091BC0C90919B
:100DA000BD0C0E94E40E62E08091B80C9091B90CE9
:100DB0000C94E40E61E08091BE0C9091BF0C0E94F7
:100DC000E40E61E08091BA0C9091BB0C0E94E40E9D
:100DD00061E08091BC0C9091BD0C0E94E40E61E03A
:100DE0008091B80C9091B90C0C94E40E62E0809163
:100DF000BE0C9091BF0C0E94E40E62E08091BA0C90
:100E00009091BB0C0E94E40E61E08091BC0C90912B
:100E1000BD0C0E94E40E61E08091B80C9091B90C79
:100E20000C94E40E61E08091BE0C9091BF0C0E9486
:100E3000E40E61E08091BA0C9091BB0C0E94E40E2C
:100E400062E08091BC0C9091BD0C0E94E40E62E0C7
:100E50008091B80C9091B90C0C94E40E2F923F92B3
:100E60004F925F926F927F928F929F92AF92BF92BA
:100E7000CF92DF92EF92FF920F931F93CF93DF9366
:100E8000CDB7DEB760970FB6F894DEBF0FBECDBF0B
:100E90008C016B01DB018D909D90AD90BC90FC01AD
:100EA00082819381A481B58188159905AA05BB0526
:100EB00070F4B401660F771F660F771F82859385E4
:100EC0000E94D120D8011B969C938E931A97F8010B
:100ED00082829382A482B5829601812C912C540146
:100EE00044E050E0B8016A5F7F4F2C5F3F4FF8014C
:100EF00082819381A481B581FA0134961F018816FD
:100F00009906AA06BB0650F5D9011196FC901197D7
:100F100012968C9190E0A0E0B0E0DC019927882740
:100F20009F29F901F0808F29F380BF29F80186837A
:100F30009783A087B187DA01A101149782859385F1
:100F4000A80FB91F84E0FB0101900D928A95E1F78B
:100F5000FFEF8F1A9F0AAF0ABF0AC7CF4601840E60
:100F6000951ED4018C9111969C91119712964C90DC
:100F70001297512C612C712C320155244424592A8A
:100F8000482A13968C91782A5F01F801848595850B
:100F9000A685B78584159505A605B70570F4B20139
:100FA000660F771F660F771F848995890E94D1206D
:100FB000D80155969C938E935497F8014486558694
:100FC00066867786C401412C512C32019801205F3E
:100FD0003F4FD8011C964D915D916D917C911F976B
:100FE000F5013496441655066606770698F5DC0139
:100FF0001596FC90159716964C91169750E060E068
:1010000070E0BA01552744275F291496FC90149785
:101010004F291796FC907F29D80150964D935D93E8
:101020006D937C9353975F01AC014819590954960D
:101030000D90BC91A02DA40FB51F44E0F9010190C3
:101040000D924A95E1F7BFEF4B1A5B0A6B0A7B0AD8
:101050000496BFCFD601AA0DBB1D8C9111969C9111
:10106000119712968C901297912CA12CB12C5401AF
:1010700099248824992A882A13968C91B82A7F016A
:10108000F80186899789A08DB18D88159905AA05E3
:10109000BB0560F4B401660F771F848D958D0E94A7
:1010A000D120D8015D969C938E935C97F801868A37
:1010B000978AA08EB18E212C312C812C912C540139
:1010C0009801265E3F4F3A872987F80186899789DC
:1010D000A08DB18D88169906AA06BB0608F05FC0E0
:1010E000B6016E0D7F1DCE0101960E94B2029701DE
:1010F0002C5F3F4F388B2F8749815A816B817C81D0
:10110000C901330FAA0BBB0B2C013D01440E551E28
:10111000661E771E4B865C866D867E8623E0E20E19
:10112000F11CF601EE0DFF1D2F853889C901A0E0E5
:10113000B0E04B845C846D847E8484159505A6059F
:10114000B70528F4A181A1932F5F3F4FEFCF6F84A4
:101150007888460D571DF601E40FF51F3197108270
:10116000C30101978C0D9D1DD8015B969C938E93B6
:101170005A977A015C96ED91FC915D97E20DF31D13
:10118000A985BA858D919C9191838083BFEF8B1A3D
:101190009B0AAB0ABB0AE2E02E0E311C96CFC701B8
:1011A00060960FB6F894DEBF0FBECDBFDF91CF9132
:1011B0001F910F91FF90EF90DF90CF90BF90AF9075
:1011C0009F908F907F906F905F904F903F902F9067
:1011D00008954F925F926F927F92AF92BF92CF929B
:1011E000DF92EF92FF920F931F93CF93DF93EC0167
:1011F0008B018A81FB0180838B8181838C81828337
:101200008D818383DB0140E050E0BA01E4E0F0E04F
:101210001496CA80DB80EC80FD80CF0104964C15CB
:101220005D056E057F05C8F42A853B85E20FF31F37
:101230003497D080F18032812381DC921196FC9228
:10124000119712963C93129713962C931397FC01C7
:101250004F5F5F4F6F4F7F4FDBCF5F01A00EB11E1F
:101260002C85F50120832D8521832E8522832F85D2
:101270002383D50140E050E0BA01CC84DD84EE84C4
:10128000FF849C012C5F3F4F4C155D056E057F056B
:10129000F8F4CD018A199B09EC88FD888E0D9F1DFD
:1012A000FC01D080E180F28083811496DC92149757
:1012B0001596EC9215971696FC92169717968C93A6
:1012C0001797C9014F5F5F4F6F4F7F4F1496D5CF70
:1012D000F801E80FF91F8E8980838F898183888DBB
:1012E0008283898D83837901A12CB12C412C512CCF
:1012F00032018E899F89A88DB98D481659066A06D4
:101300007B0680F5EC8DFD8DEA0DFB1DA081B18182
:10131000FD0101900020E9F731976F01CA1ADB0A3D
:10132000A60160E070E0C8018E0D9F1D0E94E002E2
:10133000F4E0EF0EF11CEC8DFD8DEA0DFB1D6081DC
:101340007181A601C8018E0D9F1D0E94B621EC0C73
:10135000FD1C8FEF481A580A680A780AE2E0AE0EC0
:10136000B11CC7CFC701DF91CF911F910F91FF90A3
:10137000EF90DF90CF90BF90AF907F906F905F9095
:101380004F900895EF92FF920F931F93CF93DF93A7
:101390008C017B01DC0112962C911297FB012193A9
:1013A000CF011396ED91FC911497EF010990002065
:1013B000E9F72197CE1BDF0BAE0160E070E00E94E1
:1013C000E002D80113966D917C911497AE01C7018C
:1013D00005960E94B621CE010596DF91CF911F910F
:1013E0000F91FF90EF900895CF92DF92EF92FF92CE
:1013F0000F931F93CF93DF937C018B01DC01129637
:101400008C911297FB01808313968C9113978183A3
:101410001496ED91FC911597EF0109900020E9F7E2
:101420002197CE1BDF0BAE0160E070E0C801029691
:101430000E94E002D70114966D917C911597AE0140
:10144000C80106960E94B621CE010696F701A68134
:10145000B781FD0101900020E9F731976F01CA1AA9
:10146000DB0AA60160E070E0800F911F0E94E0029D
:101470002A96D70116966D917C911797A601C801FF
:101480008C0F9D1F0E94B621CC0DDD1DD701189633
:10149000ED91FC911997DF010D900020E9F711976C
:1014A0006D01CE1ADF0AA60160E070E0C8018C0F62
:1014B0009D1F0E94E0022496F70160857185A601B8
:1014C000C8018C0F9D1F0E94B621C6018C0F9D1F65
:1014D000D7011A966C911A971B964C911B971C96E4
:1014E0003C911C971D962C91F801E80FF91F608321
:1014F0004183328323830496DF91CF911F910F9113
:10150000FF90EF90DF90CF900895FB01E05CFF4FDC
:1015100020813181DB01AE5BBF4F4D915C912F5F2C
:101520003F4F2F7333274217530741F040815181BA
:10153000DB01A40FB51F8C933183208308953FB73F
:10154000F89480914B0490914C04A0914D04B0917B
:101550004E0426B5A89B05C02F3F19F00196A11D8A
:10156000B11D3FBFBA2FA92F982F8827820F911D39
:10157000A11DB11DBC01CD0142E0660F771F881F80
:10158000991F4A95D1F708952FB7F89460914704B1
:10159000709148048091490490914A042FBF0895A6
:1015A0002F923F924F925F926F927F928F929F9273
:1015B000AF92BF92CF92DF92EF92FF920F931F9361
:1015C000CF93DF93CDB7DEB7A6970FB6F894DEBF03
:1015D0000FBECDBF8C010E94C40A4B015C01980173
:1015E00025573B4F3E8B2D8BF90180819181A28144
:1015F000B381A5019401281B390B4A0B5B0BDA015F
:10160000C901893F9A42A105B10510F035971082B2
:10161000180144E8241A4BEF340AD1018D919C91B2
:10162000892B79F0F801E157FB4F80819181A281EC
:10163000B38188159905AA05BB0518F4F10111823B
:10164000108298012C573B4F3A8B298BA8014058A8
:101650005B4F5C8B4B8BC8014896988F8F8BD80162
:10166000AA57BB4FBC8FAB8FF801EC56FB4FFE8FD8
:10167000ED8F215F3F4F38A32F8F42505109588B78
:101680004F8786599B4F9A8F898F1996BAA3A9A322
:10169000A50194012C5E3F4F4F4F5F4F2BA33CA3FE
:1016A0004DA35EA3F80184899589A689B789892B02
:1016B0008A2B8B2B81F4D80112968D919C911397D4
:1016C000DC01ED91FC910680F781E02D19959C01DC
:1016D00097FF14C08DC20E94C40ADC01CB01881997
:1016E0009909AA09BB09F801C488D588E688F78852
:1016F000C816D906EA06FB06F0F6A1C2A989BA897E
:101700008D919C911197820F931F8D939C93F10162
:101710004081518147305105D9F4A98DBA8D8D9101
:101720009C911197AC014F5F5F4F4D935C93F80113
:10173000E80FF91F208FEF85F8898081918101974B
:1017400091838083892B09F0ADCF88E090E032C08F
:101750004115510539F52F3F310589F481E090E0BD
:10176000F101918380832BA13CA14DA15EA1A9A190
:10177000BAA12D933D934D935C93139793CF0E9401
:10178000C40ADC01CB0188199909AA09BB09893867
:101790009341A105B10508F485CFF801EA57FB4F45
:1017A00010824DC241305105A9F42E3F310531F46C
:1017B00082E090E0D1018D939C9374CFF10111826E
:1017C0001082AB8DBC8D8C9181116CCFC8010E94B1
:1017D000DA1668CF4230510591F4EF85F8893183EC
:1017E0002083A98DBA8D1D921C9283E090E0F101B7
:1017F00091838083A989BA892D933C9353CF433039
:10180000510569F4322F2227EF85F8898081918173
:10181000280F391F3183208384E090E0CBCF443000
:10182000510581F460E071E00E9489258F3F9105A8
:1018300031F485E090E0F1019183808333CF118210
:10184000108230CF4530510571F4EB89FC8931832A
:10185000208386E090E0D1018D939C93E989FA89F9
:10186000318320831FCF46305105A9F4322F222720
:10187000AB89BC898D919C911197280F391F2D93AD
:101880003C9387E090E0F10191838083AF85B88934
:101890008D919C9157CF4830510509F003CFF1014C
:1018A0001182108260E071E00E9489258F3F9105CE
:1018B00009F0F8CEAB89BC898D919C91009709F015
:1018C000C6C0C8010E94DA1686E292E09A83898334
:1018D0001C821B828BE393E09E838D8398878F838A
:1018E0009A8789871B861C861D861E866801B8EE2E
:1018F000CB1ABBEFDB0A7801E6EBEE1AEBEFFE0A40
:10190000412C22E0522E612C712CD601ED91FC91DC
:101910003097A9F1848195819C838B83808191810B
:101920009E838D8382819381DC01ED91FC91048003
:10193000F581E02D199598878F83D601ED91FC9163
:1019400082819381DC01ED91FC910680F781E02D8D
:1019500019959A8789874B865C866D867E86D60127
:10196000ED91FC9160857185D801ED91FC9101901C
:10197000F081E02DAE014F5F5F4FC8011995B2E0D5
:10198000CB0ED11CEC14FD0409F0BFCF412C92E02A
:10199000592E612C712CF701A081B1811097E1F1D2
:1019A00012968D919C9113979C838B8314968D91A5
:1019B0009C9115979E838D83ED91FC9111970480E6
:1019C000F581E02DCD01199598878F83D7018D91F1
:1019D0009C91DC01ED91FC910680F781E02D199539
:1019E0009A8789874B865C866D867E86D801ED91C5
:1019F000FC91C080D180F70180819181DC01ED9163
:101A0000FC910280F381E02D1995AE014F5F5F4F8D
:101A1000BC01C801F6011995F2E0EF0EF11CE214C9
:101A2000F30409F0B8CFF801EA57FB4F81E0808357
:101A3000319680829182A282B382AD89BE898D92D5
:101A40009D92AD92BC9213978FEF9FEFFDC08A30AD
:101A5000910509F0A2C086EC92E09A8389831B82EB
:101A60001C821D821E821F82188619861A860E9479
:101A7000C40AF801C084D184E284F3849B01AC01E0
:101A80002C193D094E095F0969017A016F89788D2A
:101A9000CE0101960E948904C701B60128EE33E009
:101AA00040E050E00E949D25CB80DC80ED80FE80F0
:101AB000C20ED31EE41EF51ECB82DC82ED82FE82B6
:101AC0009B01AC0160E472E48FE090E00E94792514
:101AD000CF80D884E984FA84DC01CB018C0D9D1D74
:101AE000AE1DBF1D8F839887A987BA870E94C40A3D
:101AF000CF80D884E984FA8436E3D31A35E6E30A42
:101B000034ECF30A28EE33E040E050E00E949D25DB
:101B100029013A019B01AC0160E472E48FE090E09E
:101B20000E947925A7019601261B370B480B590BFC
:101B3000CA01B901CB80DC80ED80FE8031E0C31AA0
:101B4000D108E108F108A7019601241935094609D1
:101B5000570929013A0120E03AEC4AE95BE30E9487
:101B60009D2573016201C20ED31EE41EF51ED8012D
:101B70001C96CD92DD92ED92FC921F97F801608B3E
:101B8000718B828B938B0E94C40AAD89BE896D9341
:101B90007D938D939C93139785CD8630910559F451
:101BA0006F89788D8D8D9E8D0E942E0781E0EF8D3F
:101BB000F8A1808377CD8B30910521F4AB8DBC8D5E
:101BC0001C9270CDFC01EF53FE4FEE0FFF1FE00F94
:101BD000F11F80819181009709F464CDDC01ED91C2
:101BE000FC910190F081E02D6F89788D19955ACD87
:101BF000F801EA57FB4F8081882321F17801B9E78A
:101C0000EB1ABBEFFB0AF70180819181A281B381BE
:101C1000A5019401281B390B4A0B5B0BDA01C901A2
:101C2000853C9940A105B10568F0C8010E94DA160B
:101C3000D7018D929D92AD92BC92139703C08EEF07
:101C40009FEF02C080E090E0A6960FB6F894DEBF4A
:101C50000FBECDBFDF91CF911F910F91FF90EF90FD
:101C6000DF90CF90BF90AF909F908F907F906F90BC
:101C70005F904F903F902F9008951F920F920FB654
:101C80000F9211242F933F938F939F93AF93BF9302
:101C90008091470490914804A0914904B0914A046E
:101CA0003091460423E0230F2D3720F40196A11D27
:101CB000B11D05C026E8230F0296A11DB11D20937A
:101CC00046048093470490934804A0934904B0933A
:101CD0004A0480914B0490914C04A0914D04B09122
:101CE0004E040196A11DB11D80934B0490934C04AA
:101CF000A0934D04B0934E04BF91AF919F918F91EB
:101D00003F912F910F900FBE0F901F90189530911B
:101D1000A104313208F047C080917D048111FCCFCD
:101D20009091A00422E020937D0421E020937C0484
:101D30002FEF20937B0410927A0430937904E0E82B
:101D4000F4E0A9E5B4E020E0321721F041914D9391
:101D50002F5FFACF1092580420915804990F922BBC
:101D60009093580490915704913041F41092570485
:101D7000909158049093BB0095EC01C095EE909320
:101D8000BC0090917D049230E1F390917B049F3FE1
:101D900079F080917B04803241F080917B04803324
:101DA00031F084E005C081E003C082E001C083E03F
:101DB00010927F041092A10410927E040895682F5F
:101DC00082EA94E00C9400161F93CF93DF93EC010A
:101DD0008C8583FF06C0613011F4885F07C088508E
:101DE00005C0613011F4805F01C080518C878C8503
:101DF0008F738C8740EF5FE06C818D859E850E949C
:101E0000AD1340EF5FE06F818D859E850E94AD131D
:101E1000EC85E695E695E695E83028F4F0E0E65C9A
:101E2000FD4F108101C010E08D859E8520E030E0DF
:101E300010FF03C040E050E102C040E050E06E817E
:101E4000CD960E947A138D859E8520E030E011FFAB
:101E500003C040E050E102C040E050E06885CD960C
:101E60000E947A138D859E8520E030E012FF03C02A
:101E700040E050E102C040E050E06D81CD960E940C
:101E80007A138D859E8520E030E013FF03C040E08B
:101E900050E102C040E050E06985CD960E947A137F
:101EA0008C85DF91CF911F9108954F925F926F9231
:101EB0007F928F929F92AF92BF92CF92DF92EF92DA
:101EC000FF920F931F93CF93DF93EC01C888D988BB
:101ED000EA88FB888C859D85AE85BF85C81AD90A9E
:101EE000EA0AFB0A6C897D898E899F899B01AC0176
:101EF0000E9490234B015C016C8D7D8D8E8D9F8D9A
:101F00009B01AC010E94C0219B01AC01C501B40141
:101F10000E9431220E94A322C114D104E104F104E1
:101F200099F462307105810591050CF076C01CA210
:101F30001DA21EA21FA21C8A1D8A1E8A1F8A1CAAFD
:101F40001DAA1EAA1FAAEDC00CA91DA92EA93FA952
:101F50001C141D041E041F04FCF4101611061206A6
:101F600013064CF46C157D058E059F054CF52A81F2
:101F7000211153C025C0011511052105310509F4B2
:101F80004CC06C157D058E059F050CF046C08A81FE
:101F9000813009F042C036C0101611061206130631
:101FA000ECF40027112798010C191D092E093F098F
:101FB00060177107820793071CF42A81213069F5A5
:101FC0009B01AC0188279927DC01821B930BA40B92
:101FD000B50B8CAB9DABAEABBFAB1FC001151105F4
:101FE00021053105D1F08824992454018C189D08CD
:101FF000AE08BF08681579058A059B0574F48A81C7
:1020000081110BC030952095109501951F4F2F4FD2
:102010003F4F0CAB1DAB2EAB3FAB8CA89DA8AEA821
:10202000BFA881149104A104B10489F488AD99ADCD
:10203000AAADBBAD8CAF9DAFAEAFBFAF81E01C14FE
:102040001D041E041F040CF080E08A833FC0CCAC4A
:10205000DDACEEACFFACA7019601C701B6010E9452
:10206000C0212B013C01C501B4010E94DB2220E00C
:1020700030E040E850E40E94902320E030E040E867
:102080005FE30E94C0219B01AC01C301B2010E9429
:1020900031229B01AC01C701B6010E94BF213B0167
:1020A0006C01FE01E05CFF4FE080F1800281138152
:1020B0009701A8010E948B23181614F4730186015E
:1020C000C701D8018CAF9DAFAEAFBFAF3FEF831A52
:1020D000930AA30AB30A8CAA9DAAAEAABFAACCAC43
:1020E000DDACEEACFFACC701B6010E94AA226CA326
:1020F0007DA38EA39FA3A701960160E074E284E70D
:1021000099E40E9431226C8B7D8B8E8B9F8B2A8170
:10211000211107C0DC01CB01B0588C8B9D8BAE8B9D
:10212000BF8BDF91CF911F910F91FF90EF90DF90C8
:10213000CF90BF90AF909F908F907F906F905F9067
:102140004F900895CF93DF93DC01477055276627A2
:102150007727FA013197CD91DC911197E730F1059E
:1021600030F48827EE58FF4F8F4F0C94DE25EC811A
:10217000FD8161E01BC0EC81FD8165E017C0EC8151
:10218000FD8164E013C0EC81FD8166E00FC0EC814D
:10219000FD8162E00BC0EC81FD816AE007C0EC814B
:1021A000FD8168E003C0EC81FD8169E0CD01DF9134
:1021B000CF911994CF93DF93EC01CB01BA0126E0C4
:1021C00030E040E050E00E94BF256230710581059B
:1021D000910559F18CF46115710581059105F1F0B6
:1021E0006130710581059105C1F5E881F9810480AF
:1021F000F581E02D65E02DC0643071058105910504
:1022000011F1D4F0653071058105910531F5E88152
:10221000F9810480F581E02D66E01BC0E881F98139
:102220000480F581E02D64E014C0E881F981048028
:10223000F581E02D61E00DC0E881F9810480F58130
:10224000E02D63E006C0E881F9810480F581E02D8E
:1022500062E0CE01DF91CF911994DF91CF91089583
:102260004370552766277727DC01ED91FC910480A8
:10227000F581E02D423051056105710571F0433063
:1022800051056105710559F0413051056105710530
:1022900011F065E005C066E003C06AE001C069E0D6
:1022A0001994CF93DF93EC01CB01BA0123E030E026
:1022B00040E050E00E94BF25613071058105910525
:1022C00081F0623071058105910591F0672B682BD3
:1022D000692BC1F4E881F9810480F581E02D64E087
:1022E0000DC0E881F9810480F581E02D61E006C030
:1022F000E881F9810480F581E02D62E0CE01DF9173
:10230000CF911994DF91CF91089543705527662797
:102310007727DC01ED91FC910480F581E02D4230BE
:1023200051056105710571F0433051056105710575
:1023300059F0413051056105710511F062E005C0A9
:1023400063E003C061E001C060E01994CF93DF93C4
:10235000EC01E881F9810480F581E02D6A81611149
:1023600062E0CE011995E881F9810480F581E02DC4
:102370008A81811102C061E001C063E0CE0119953C
:102380008CA59DA5019739F0880F991F880F991F7B
:1023900002970197F1F7E881F9810480F581E02D3A
:1023A0006A81611162E0CE01DF91CF911994CF93E0
:1023B000DF93EC0120E030E0A9016C897D898E89F2
:1023C0009F890E948B2318161CF4E8A9F9A902C062
:1023D000EAA9FBA9DF91CF9119940F931F93DC0118
:1023E00013960C91139710E009301105D8F5F801F8
:1023F0008827E758FF4F8F4F0C94DE25ED91FC9115
:1024000011970084F185E02D29C0ED91FC91119781
:102410000284F385E02D22C0ED91FC911197048494
:10242000F585E02D1BC0ED91FC9111970684F78591
:10243000E02D14C0ED91FC9111970088F189E02DF9
:102440000DC0ED91FC9111970288F389E02D06C033
:10245000ED91FC9111970488F589E02DCD011F9134
:102460000F9119941F910F9108950F931F93CF937C
:10247000DF93FC01A685B7858D01005C1F4FE80145
:102480008881998101968F739927AD014E5B5F4FCB
:10249000EA012881398128173907D1F3E801288119
:1024A0003981A20FB31F6C93A685B785A05CBF4F7F
:1024B00011969C938E93A689B7892C9181E090E028
:1024C000078C02C0880F991F0A94E2F7822B8C9325
:1024D00081E081A30488F589E02D80818064808378
:1024E00081E090E0DF91CF911F910F910895FC0161
:1024F00081A1882329F0A489B5898C9186FFFBCF1F
:1025000011A20895FC01A485B585FD01E05CFF4F93
:10251000208131813296808191812817390779F0A5
:1025200080819181A80FB91F8C91208131812F5F0B
:102530003F4F2F7333273183208390E008958FEF2F
:102540009FEF0895DC011C96ED91FC911D97DF0132
:10255000A05CBF4F2D913C91119712968D919C914B
:1025600011972817390739F08D919C91E80FF91FC1
:10257000808190E008958FEF9FEF0895FC012485FE
:102580003585F901E05CFF4F808191813296208191
:102590003181821B930B8F739927089584E397E011
:1025A0000E94BE128AE896E00E94BE1280EE95E07C
:1025B0000E94BE1286E395E00C94BE12CF92DF9289
:1025C000EF92FF920F931F93CF93DF93EC019B81C8
:1025D000943041F0983031F0933031F0963021F062
:1025E00012E003C014E001C013E02496E12CF12CAA
:1025F000C62ED12C01E0C6010E2C02C09595879500
:102600000A94E2F76C8180FD602789910E940D1980
:102610008FEFE81AF80AE11670F3DF91CF911F915E
:102620000F91FF90EF90DF90CF900895CF93DF93BD
:10263000FC012381222329F1EC0184810E94C3172C
:102640008D810E94C3178B81843011F0883029F46A
:102650008E810E94C3178F8105C0833011F08630B0
:1026600019F48E810E94C3178FA58F3F51F00E94ED
:10267000C3176EA581E068278FA5DF91CF910C94D9
:102680000D19DF91CF910895CF93DF93FC01238142
:102690002223A1F0EC010190F081E02D0480F5816E
:1026A000E02D60E019958FA58F3F41F00E94C31780
:1026B0006EA58FA5DF91CF910C940D19DF91CF916D
:1026C0000895CF93C42FFC01808191E090937E0404
:1026D0008093A00410927F041092A10482EA94E0F7
:1026E0000E9400166C2F82EA94E00E940016CF919F
:1026F0000C94870E0F931F93CF93DF93042FD52F46
:10270000122FC32FFC01808191E090937E0480936F
:10271000A00410927F041092A104F4E06F9FB00116
:1027200011246A5F7F4F82EA94E00E940016802F96
:102730009D2F0E94DF0E8D2F90E00E94DF0E812FD3
:102740009C2F0E94DF0E8C2F90E00E94DF0EDF9105
:10275000CF911F910F910C94870E9A01CD96211560
:1027600040E1340728F020E030E040E050E102C0D2
:1027700040E050E00C947A131F920F920FB60F9224
:1027800011240BB60F922F933F938F939F93EF9348
:10279000FF932091EE043091EF048091F00490912A
:1027A000F1042817390731F4809131018F7D80932E
:1027B000310114C0E091F004F091F104E255FB4FB7
:1027C00020818091F0049091F10401968F739927F4
:1027D0009093F1048093F00420933601FF91EF91E0
:1027E0009F918F913F912F910F900BBE0F900FBE35
:1027F0000F901F9018951F920F920FB60F921124F1
:102800000BB60F922F933F938F939F93EF93FF936A
:10281000209198053091990580919A0590919B059A
:102820002817390731F48091D1008F7D8093D10032
:1028300014C0E0919A05F0919B05E85AFA4F208167
:1028400080919A0590919B0501968F73992790939B
:102850009B0580939A052093D600FF91EF919F915D
:102860008F913F912F910F900BBE0F900FBE0F9045
:102870001F9018951F920F920FB60F9211240BB64E
:102880000F922F933F938F939F93EF93FF932091FA
:1028900042063091430680914406909145062817E0
:1028A000390731F48091C9008F7D8093C90014C02D
:1028B000E0914406F0914506EE5FF94F208180914A
:1028C00044069091450601968F739927909345068B
:1028D000809344062093CE00FF91EF919F918F91BA
:1028E0003F912F910F900BBE0F900FBE0F901F9036
:1028F00018951F920F920FB60F9211240BB60F92DC
:102900002F933F938F939F93EF93FF932091EC0628
:102910003091ED068091EE069091EF062817390769
:1029200031F48091C1008F7D8093C10014C0E0918B
:10293000EE06F091EF06E455F94F20818091EE0606
:102940009091EF0601968F7399279093EF068093ED
:10295000EE062093C600FF91EF919F918F913F91DA
:102960002F910F900BBE0F900FBE0F901F901895D8
:102970001F920F920FB60F9211240BB60F922F9346
:102980003F934F935F936F937F938F939F93AF93F7
:10299000BF93EF93FF938091300182FD07C0809138
:1029A000360162EF74E00E94850A02C08091360110
:1029B000FF91EF91BF91AF919F918F917F916F9117
:1029C0005F914F913F912F910F900BBE0F900FBED3
:1029D0000F901F9018951F920F920FB60F9211240F
:1029E0000BB60F922F933F934F935F936F937F9309
:1029F0008F939F93AF93BF93EF93FF938091D000FA
:102A000082FD07C08091D6006CE975E00E94850ABE
:102A100002C08091D600FF91EF91BF91AF919F913D
:102A20008F917F916F915F914F913F912F910F9077
:102A30000BBE0F900FBE0F901F9018951F920F9214
:102A40000FB60F9211240BB60F922F933F934F9313
:102A50005F936F937F938F939F93AF93BF93EF9306
:102A6000FF938091C80082FD07C08091CE0066E48C
:102A700076E00E94850A02C08091CE00FF91EF911E
:102A8000BF91AF919F918F917F916F915F914F9186
:102A90003F912F910F900BBE0F900FBE0F901F9084
:102AA00018951F920F920FB60F9211240BB60F922A
:102AB0002F933F934F935F936F937F938F939F9346
:102AC000AF93BF93EF93FF938091C00082FD07C047
:102AD0008091C60060EF76E00E94850A02C0809176
:102AE000C600FF91EF91BF91AF919F918F917F9120
:102AF0006F915F914F913F912F910F900BBE0F906F
:102B00000FBE0F901F90189585ED8093BC008091AB
:102B1000BC0084FDFCCF10927D040895613298F4CE
:102B200020917D04243089F460935C0D282FACE360
:102B3000BDE0FC018E2F821B861718F481918D93C6
:102B4000F9CF80E0089581E0089582E00895089526
:102B5000E091A00D80919F0DE81730F4F0E0E1586E
:102B6000F24F808190E008958FEF9FEF089590914C
:102B7000A00D80919F0D981750F4E92FF0E0E158D7
:102B8000F24F208130E09F5F9093A00D02C02FEFA5
:102B90003FEFC901089580919F0D90E02091A00D15
:102BA000821B91090895CF92DF92EF92FF920F93CB
:102BB0001F93CF93DF937C01CB018A0120917E0488
:102BC000222389F0EB016B01C40ED51ECC15DD0567
:102BD00069F06991D701ED91FC910190F081E02DB0
:102BE000C7011995F3CF642F0E948E15C801DF919C
:102BF000CF911F910F91FF90EF90DF90CF900895AC
:102C0000CF93DF931F92CDB7DEB7698320917E0407
:102C10002223D1F02091A104203240F021E030E0C5
:102C2000FC013383228380E090E015C080917F0413
:102C3000E82FF0E0E058FB4F998190838F5F8093FD
:102C40007F048093A10405C061E0CE0101960E943B
:102C50008E1581E090E00F90DF91CF910895CF9293
:102C6000DF92EF92FF920F931F93CF93DF936C014C
:102C7000EB017B01E40EF51E00E010E0CE15DF0550
:102C800061F06991D601ED91FC910190F081E02D08
:102C9000C6011995080F191FF1CFC801DF91CF9117
:102CA0001F910F91FF90EF90DF90CF9008954F927A
:102CB0005F926F927F928F929F92AF92BF92CF92CC
:102CC000DF92EF92FF92CF93DF93EC016A017B01D9
:102CD00020E030E0A901C701B6010E942C2287FF45
:102CE00004C0F7FAF094F7F8F0948C8C9D8CAE8CBD
:102CF000BF8CA7019601C501B4010E942C22882334
:102D000009F449C06CA97DA98EA99FA90E94DB2264
:102D10002B013C01A7019601C501B4010E9431229B
:102D20009B01AC01C301B2010E9490230E94A32227
:102D30006CAB7DAB8EAB9FABA701960160E070E002
:102D400080E090E40E9431220E94032426E53EE0C8
:102D50004DE25FE30E94902320E034E244E759E42F
:102D60000E94902368AF79AF8AAF9BAFCC8EDD8E87
:102D7000EE8EFF8ECE01DF91CF91FF90EF90DF902E
:102D8000CF90BF90AF909F908F907F906F905F900B
:102D90004F900C94550FDF91CF91FF90EF90DF9003
:102DA000CF90BF90AF909F908F907F906F905F90EB
:102DB0004F9008950F931F93CF93DF93CDB7DEB756
:102DC0002A970FB6F894DEBF0FBECDBF8C0186ECFC
:102DD00092E09A8389831B821C821D821E821F823D
:102DE000188619861A86D801ED91FC910190F08120
:102DF000E02DAE014F5F5F4F6AE070E0C8011995AA
:102E00000E94C40AF80160877187828793872A9697
:102E10000FB6F894DEBF0FBECDBFDF91CF911F91EB
:102E20000F910895CF92DF92EF92FF92CF93DF93AD
:102E3000EC010E949F0A6B017C0188A599A5AAA5B7
:102E4000BBA5B701A601481B590B6A0B7B0B8CA1D4
:102E50009DA1AEA1BFA1481759076A077B07F8F0EB
:102E60002A818C859D85AE85BF85213021F4019610
:102E7000A11DB11D03C00197A109B1098C879D87D0
:102E8000AE87BF874C855D856E857F85CE010E94AC
:102E9000ED11C8A6D9A6EAA6FBA681E001C080E094
:102EA000DF91CF91FF90EF90DF90CF9008954F92F8
:102EB0005F926F927F92AF92BF92CF92DF92EF922A
:102EC000FF920F931F93CF93DF93EC015A018B0175
:102ED000C88CD98CEA8CFB8C2601370177FA709468
:102EE00077F870949A01AB01C301B2010E948B2361
:102EF00018165CF09501A801C701B6010E942C22AA
:102F000087FD05C06501780102C07301620120E000
:102F100030E0A901C701B6010E942C22811105C031
:102F20001CA21DA21EA21FA21BC0A701960160E049
:102F300074E284E799E40E9431229F770E94AA22DA
:102F40006CA37DA38EA39FA311E020E030E0A90134
:102F5000C701B6010E948B2318160CF010E01A83EB
:102F6000CC8ADD8AEE8AFF8ADF91CF911F910F9183
:102F7000FF90EF90DF90CF90BF90AF907F906F90D9
:102F80005F904F90089590E0FC01E25BFC4F24912C
:102F9000FC01E85FFC4F8491882399F090E0880F52
:102FA000991FFC01E251FD4FA591B491FC01EC5237
:102FB000FD4F859194918FB7F894EC91E22BEC93AF
:102FC0008FBF08951F920F920FB60F9211240BB668
:102FD0000F922F933F934F935F936F937F938F93B2
:102FE0009F93AF93BF93EF93FF938091B900887F36
:102FF000803609F49CC068F5883209F45BC090F40F
:10300000803109F454C038F4882309F4EFC08830C3
:1030100009F44DC0EFC0883109F44CC0803209F486
:103020005DC0E8C0803409F468C048F4803309F416
:1030300055C0883309F0DEC080937B04D1C0803551
:1030400009F44FC0883509F45DC0883409F0D2C056
:10305000CFC0883909F4C0C0A8F4883709F467C024
:1030600038F4883609F463C0803709F460C0C2C000
:10307000883809F4B1C0803909F45FC0803809F09C
:10308000B9C05BC0803B09F481C038F4803A09F4D0
:1030900066C0883A09F47AC0ADC0803C09F4A0C08B
:1030A000883C09F49DC0883B09F483C0A3C080918B
:1030B000580410C090917A0480917904981770F5A3
:1030C000E0917A0481E08E0F80937A04F0E0E75A71
:1030D000FB4F80818093BB0085EC7FC080937B0495
:1030E00087C0E0917A0481E08E0F80937A0480910A
:1030F000BB00F0E0E75AFB4F808390917A04809107
:10310000790467C0E0917A0481E08E0F80937A049D
:103110008091BB00F0E0E75AFB4F808380917C04F4
:10312000811166C081E08093570484EA5AC083E02D
:1031300080937D0410927E0DCFCF80917E0D8032E2
:1031400008F04AC0E0917E0D81E08E0F80937E0DE5
:103150008091BB00F0E0E25AF24F8083BDCF8091B6
:103160007E0D803230F4E0917E0DF0E0E25AF24FB5
:1031700010820E94841560917E0D70E08EE59DE0C6
:10318000E0E0F0E0199510927E0D2AC084E0809373
:103190007D0410925D0D10925C0DE0E0F0E0199559
:1031A00080915C0D811105C081E080935C0D1092CF
:1031B0003C0DE0915D0D81E08E0F80935D0DF0E0A0
:1031C000E45CF24F80818093BB0090915D0D809113
:1031D0005C0D981708F480CF85E88093BC000AC086
:1031E00085EC8093BC0010927D0404C010927B0497
:1031F0000E948415FF91EF91BF91AF919F918F91A4
:103200007F916F915F914F913F912F910F900BBEE6
:103210000F900FBE0F901F901895362F90E0FC0175
:10322000E257FD4F4491FC01E25BFC4F2491FC010D
:10323000E85FFC4F9491992309F468C0442309F492
:1032400051C050E0FA013197E131F10508F04AC070
:103250008827EE57FF4F8F4F0C94DE25809180001A
:103260008F7703C0809180008F7D809380003AC06B
:1032700084B58F7702C084B58F7D84BD33C08091C3
:10328000B0008F7703C08091B0008F7D8093B00035
:1032900029C0809190008F7707C0809190008F7D2A
:1032A00003C080919000877F809390001BC0809125
:1032B000A0008F7707C08091A0008F7D03C0809110
:1032C000A000877F8093A0000DC0809120018F77A0
:1032D00007C0809120018F7D03C080912001877FEE
:1032E00080932001E92FF0E0EE0FFF1FEC52FD4F1D
:1032F000A591B4919FB7F894311104C08C91209599
:10330000282302C0EC912E2B2C939FBF089510927E
:103310007D0481E080937C041092570461E084E195
:103320000E940D1961E085E10E940D19E9EBF0E0C2
:1033300080818E7F808380818D7F808388E48093ED
:10334000B80085E48093BC0008958F929F92AF925D
:10335000BF92EF92FF921F93CF93DF937C0182EA9B
:1033600094E0F701918380831092A00D10929F0D3D
:1033700010927F041092A1040E948719E701ED9634
:1033800010927F041092A1040E94871940E060E02F
:10339000CE010E94611380E496E0F7019483838359
:1033A00085AD91E090937E048093A00410927F04F9
:1033B0001092A10460E082EA94E00E9400160E944C
:1033C000870EF70185AD90917D049111FCCF91E0BE
:1033D00090937D0490937C042FEF20937B041092B4
:1033E0007A04109279049093580490915804880FAD
:1033F000892B8093580480915704813041F41092B6
:103400005704809158048093BB0085EC01C085EE81
:103410008093BC0080917D048130E1F380917A0437
:10342000811103C090917A0401C091E0A9E5B4E054
:10343000EFE7FDE080E0891721F02D9121938F5F68
:10344000FACF1092A00D80939F0D82EA94E00E9423
:10345000B715182F482F4F76406160E0CE010E94CB
:10346000611343E06EEFCE010E946113412F60E0D3
:10347000CE010E9461130E949F0A7B0185E0882E85
:10348000912CA12CB12C0E949F0A6E197F09683ED5
:103490007340C8F381E0881A9108A108B108E8E1F7
:1034A000EE1AECEFFE0A81149104A104B10459F75D
:1034B000412F416A60E0CE010E94611310E020E0DC
:1034C00030E040E050E0612FCE010E947A131F5F90
:1034D0001031A9F7DF91CF911F91FF90EF90BF902E
:1034E000AF909F908F900895789484B5826084BD4A
:1034F00084B5816084BD85B5826085BD85B58160F8
:1035000085BD80916E00816080936E001092810075
:103510008091810082608093810080918100816030
:1035200080938100809180008160809380008091F1
:10353000B10084608093B1008091B000816080937D
:10354000B000809191008260809391008091910001
:1035500081608093910080919000816080939000C1
:103560008091A10082608093A1008091A100816080
:103570008093A1008091A00081608093A000809141
:1035800021018260809321018091210181608093DB
:1035900021018091200181608093200180917A0037
:1035A000846080937A0080917A00826080937A00B0
:1035B00080917A00816080937A0080917A0080689F
:1035C00080937A001092C10080E092ECA1E0B0E01C
:1035D00080930A0890930B08A0930C08B0930D08F1
:1035E000E0910808F0910908A489B58981E090E08C
:1035F0009C0100A002C0220F331F0A94E2F72C9313
:10360000A089B1891C92A289B38920E12C9311A2CF
:10361000A689B7894C919C01048C02C0220F331FEC
:103620000A94E2F7242B2C93A689B7894C919C012C
:10363000058C02C0220F331F0A94E2F7242B2C932F
:10364000A689B7894C919C01068C02C0220F331FBA
:103650000A94E2F7242B2C93A689B7892C91078C26
:1036600002C0880F991F0A94E2F7809582238C93F9
:103670001092830C1092820C1092850C1092840C84
:103680001092890C1092880C1092870C1092860C64
:10369000E0E5FCE080E090E021913191232B81F482
:1036A000FC01EE0FFF1FE05BF34F26E537E03183AF
:1036B00020838C599F4F909359078093580704C0DB
:1036C00001968931910541F78EEF9CE00E94A51982
:1036D00080EC9CE00E94A51920E030E045E853E42E
:1036E0006091DA077091DB078091DC079091DD072C
:1036F0000E942C22882309F453C080E090E0A5E8C2
:10370000B3E48093DA079093DB07A093DC07B093D0
:10371000DD0780E696EFAAE6B5E480930208909371
:103720000308A0930408B09305088091F6079091D0
:10373000F707A091F807B091F907181619061A06AD
:103740001B0674F56091D6077091D7078091D80752
:103750009091D9079B01AC010E9490236B017C01E1
:103760006091DE077091DF078091E0079091E1079B
:103770009B01AC010E94C0219B01AC01C701B601B5
:103780000E9431220E94A3226093F6077093F707EC
:103790008093F8079093F90782EC97E00E94550F09
:1037A00040E050E068EC72E482EC97E00E9457162B
:1037B00020E030E045E853E4609196077091970768
:1037C00080919807909199070E942C22882309F4F0
:1037D00053C080E090E0A5E8B3E48093960790930F
:1037E0009707A0939807B093990780E696EFAAE60B
:1037F000B5E48093BE079093BF07A093C007B09332
:10380000C1078091B2079091B307A091B407B0911E
:10381000B507181619061A061B0674F5609192076B
:103820007091930780919407909195079B01AC014B
:103830000E9490236B017C0160919A0770919B0715
:1038400080919C0790919D079B01AC010E94C02133
:103850009B01AC01C701B6010E9431220E94A32244
:103860006093B2077093B3078093B4079093B50742
:103870008EE797E00E94550F40E050E068EC72E45C
:103880008EE797E00E94571686E098E00E94D00AE3
:10389000C0905304D0905404E0905504F090560426
:1038A00020E030E0A901C701B6010E942C22882344
:1038B00019F12091D6073091D7074091D807509140
:1038C000D907C701B6010E942C22882331F0B70125
:1038D000A60182EC97E00E9457178091E60790912D
:1038E000E707A091E807B091E907892B8A2B8B2B7A
:1038F000C1F182EC97E033C0C0904F04D0905004E7
:10390000E0905104F090520420E030E0A901C7019A
:10391000B6010E942C22882321F120919207309138
:1039200093074091940750919507C701B6010E94F3
:103930002C22882331F0B701A6018EE797E00E9480
:1039400057178091A2079091A307A091A407B09167
:10395000A507892B8A2B8B2B21F08EE797E00E94FD
:1039600012170E94CE1290CFAF92BF92CF92DF92E9
:10397000EF92FF920F931F93CF93DF931092A504C2
:103980001092A40488EE93E0A0E0B0E08093A60437
:103990009093A704A093A804B093A90426E432E06E
:1039A0003093A3042093A204109237071092360795
:1039B0008093380790933907A0933A07B0933B0759
:1039C000E6E5F2E0F0933507E093340720EF36E0C8
:1039D00030934107209340072CEA36E030934307A9
:1039E0002093420725EC30E03093450720934407AD
:1039F00024EC30E0309347072093460720EC30E07A
:103A0000309349072093480721EC30E030934B076F
:103A100020934A0722EC30E030934D0720934C0767
:103A200026EC30E030934F0720934E0764E060931C
:103A3000500753E05093510747E04093520735E059
:103A40003093530721E02093540710928D06109273
:103A50008C0680938E0690938F06A0939006B09369
:103A60009106F0938B06E0938A06C6E4D6E0D093E5
:103A70009706C0939606C2E0D6E0D0939906C0930D
:103A80009806CDECD0E0D0939B06C0939A06CCEC80
:103A9000D0E0D0939D06C0939C06C8ECD0E0D093B4
:103AA0009F06C0939E0609EC10E01093A1060093B8
:103AB000A0060AEC10E01093A3060093A2060EECF9
:103AC00010E01093A5060093A4066093A6065093F9
:103AD000A7064093A8063093A9062093AA06109241
:103AE000E3051092E2058093E4059093E505A09329
:103AF000E605B093E705F093E105E093E0050CE9F6
:103B000015E01093ED050093EC0508E515E0109322
:103B1000EF050093EE0505ED10E01093F10500931D
:103B2000F00504ED10E01093F3050093F20500EDAD
:103B300010E01093F5050093F40501ED10E01093EB
:103B4000F7050093F60502ED10E01093F9050093D8
:103B5000F80506ED10E01093FB050093FA0560935D
:103B6000FC055093FD054093FE053093FF0520931F
:103B70000006109239051092380580933A0590930B
:103B80003B05A0933C05B0933D05F0933705E093CA
:103B9000360582EF94E090934305809342058EEAC8
:103BA00094E0909345058093440585E391E09093DC
:103BB00047058093460584E391E0909349058093FF
:103BC000480580E391E090934B0580934A0581E39B
:103BD00091E090934D0580934C0582E391E09093A2
:103BE0004F0580934E0586E391E0909351058093B5
:103BF00050056093520550935305409354053093FC
:103C000055052093560560E68EEF9CE00E94AD209E
:103C100061E680EC9CE00E94AD2080912A0D81112C
:103C20001EC010922A0DD093260DC093250D8EEF45
:103C30009CE09093290D8093280D88E080931F0DC0
:103C40008DE08093220D8AE08093200D89E080939F
:103C5000210D8BE08093230D8CE08093240D8BE16C
:103C60009DE09093BF0C8093BE0C80913A0D811122
:103C700021C081E080933A0D88EC90E09093360D5E
:103C80008093350D8EEF9CE09093390D8093380D25
:103C900082E080932F0D87E08093320D84E0809343
:103CA000300D83E08093310D85E08093330D86E005
:103CB0008093340D8BE29DE09093BD0C8093BC0CFF
:103CC0008091EC0C811120C01092EC0C88EC90E0FB
:103CD0009093E80C8093E70C80EC9CE09093EB0CC5
:103CE0008093EA0C88E08093E10C8DE08093E40CF3
:103CF0008AE08093E20C89E08093E30C8BE0809370
:103D0000E50C8CE08093E60C8DED9CE09093BB0C71
:103D10008093BA0C8091FC0C811121C081E08093CA
:103D2000FC0C88EC90E09093F80C8093F70C80ECFE
:103D30009CE09093FB0C8093FA0C82E08093F10C52
:103D400087E08093F40C84E08093F20C83E080930E
:103D5000F30C85E08093F50C86E08093F60C8DEEF5
:103D60009CE09093B90C8093B80C80EB92E0909318
:103D700007088093060884E397E0909309088093EE
:103D8000080880E091EEA0E0B0E080930A089093EC
:103D90000B08A0930C08B0930D0810928C0C88E9C6
:103DA00092E090939B0C80939A0C10929C0C109232
:103DB0009D0C10929E0C10929F0C1092A50C1092CC
:103DC000A40C1092A60C1092A70C1092A80C1092A2
:103DD000A90C1092AF0C1092AE0C1092B00C109275
:103DE000B10C1092B20C1092B30C1092B70C10924E
:103DF000B60C8EE19CE0E0E5FCE0DC011D921D923A
:103E0000EA17FB07D9F722E83CE0119211922E172E
:103E10003F07D9F7AEE1B8E0EEE1FAE01D922AE003
:103E2000AE31B207D9F711928E179F07E1F71092C2
:103E30001A0810921B0810921C0810921D088EE799
:103E4000A82E82E0B82EB092C307A092C2071092AB
:103E5000C5071092CE071092CF071092D00710928C
:103E6000D1071092D2071092D3071092D407109264
:103E7000D5071092D6071092D7071092D807109244
:103E8000D907C12CD12C90E8E92E9FE3F92EC092DE
:103E9000DA07D092DB07E092DC07F092DD071092A0
:103EA000DE071092DF071092E0071092E107C09240
:103EB000E207D092E307E092E407F092E507109260
:103EC000E6071092E7071092E8071092E907C1E0B1
:103ED000D0E0D093EF07C093EE071FEF1093F107E8
:103EE0001092EA071092EB071092EC071092ED0780
:103EF0001092C6071092C7071092C8071092C90700
:103F000082E197E09093F3078093F20786EF96E0C3
:103F10009093F5078093F4071092F6071092F70735
:103F20001092F8071092F9071092FA071092FB0707
:103F30001092FC071092FD071092FE071092FF07E7
:103F40001092000810920108C0920208D092030853
:103F5000E0920408F09205081092C4071092CA0774
:103F60001092CB071092CC071092CD07B701A60193
:103F700082EC97E00E945716B0927F07A0927E07CE
:103F80001092810710928A0710928B0710928C076B
:103F900010928D0710928E0710928F071092900743
:103FA0001092910710929207109293071092940723
:103FB00010929507C0929607D0929707E0929807C3
:103FC000F092990710929A0710929B0710929C0703
:103FD00010929D07C0929E07D0929F07E092A00783
:103FE000F092A1071092A2071092A3071092A407C3
:103FF0001092A507D093AB07C093AA071093AD0703
:104000001092A6071092A7071092A8071092A9076E
:1040100010928207109283071092840710928507EE
:104020008AED96E09093AF078093AE078EEB96E013
:104030009093B1078093B0071092B2071092B30724
:104040001092B4071092B5071092B6071092B707F6
:104050001092B8071092B9071092BA071092BB07D6
:104060001092BC071092BD07C092BE07D092BF0746
:10407000E092C007F092C107109280071092860765
:10408000109287071092880710928907B701A6013E
:104090008EE797E00E9457168AEB92E090935707BD
:1040A0008093560782E792E090935D0780935C07C8
:1040B00086E692E090935F0780935E071092600718
:1040C00010926107109262071092630710926407C2
:1040D00010926507109266071092670710926807A2
:1040E0001092690710926A0710926B0790936D0700
:1040F00080936C0710926E0710926F0710927007F2
:104100001092710710927207109273071092740741
:104110001092750710927607109277071092780721
:10412000109279078DEF92E090937B0780937A0746
:10413000D0937D07C0937C0781E394E090935B0765
:1041400080935A07DF91CF911F910F91FF90EF90CD
:10415000DF90CF90BF90AF900895FC01DC011596E1
:104160004D9614961C921E92139715961C921597B5
:1041700012961C92129711961C9211971C921696E9
:10418000A817B90771F711A614A610A617A211AEA9
:1041900014AE10AE17AA628365AF0895F8940C941C
:1041A00014266F927F928F929F92AF92BF92CF927E
:1041B000DF92EF92FF920F931F93CF93DF930097BD
:1041C00089F4CB01DF91CF911F910F91FF90EF9078
:1041D000DF90CF90BF90AF909F908F907F906F9027
:1041E0000C944324FC01E60FF71F9C012250310977
:1041F000E217F30708F4A9C0EC01D9010D911C9155
:10420000119706171707B0F00530110508F49BC089
:10421000C80104978617970708F495C00250110942
:10422000061B170B019311936D937C93CF010E9492
:10423000DB2489C05B01A01AB10A4C01800E911EDB
:10424000A091A30DB091A40D612C712CE12CF12C47
:10425000109709F446C08D919C911197A815B90546
:10426000B1F56C0142E0C40ED11CCA14DB0478F134
:104270004C018A189B08640142E0C40ED11C1296BE
:10428000BC9012971396AC91B5E0CB16D10440F0D8
:10429000B282A38391828082D9016D937C9309C0FD
:1042A0000E5F1F4F800F911FF90191838083EB2DCB
:1042B000FA2FE114F10431F0D7011396FC93EE9339
:1042C000129741C0F093A40DE093A30D3CC0681673
:1042D000790608F43C017D0112960D90BC91A02D49
:1042E000B7CF8091A10D9091A20D88169906E1F4A7
:1042F00066167706C8F4809100029091010200973B
:1043000041F48DB79EB74091040250910502841B81
:10431000950BE817F907C8F4F093A20DE093A10DEF
:10432000F901718360830FC0CB010E9443247C019B
:10433000009759F0A801BE010E94B621CE010E944B
:10434000DB24C70104C0CE0102C080E090E0DF9111
:10435000CF911F910F91FF90EF90DF90CF90BF9082
:10436000AF909F908F907F906F900895FB01DC013C
:1043700002C001900D9241505040D8F70895505816
:10438000BB27AA270E94D7210C9451230E944323C4
:1043900038F00E944A2320F039F49F3F19F426F4A4
:1043A0000C9440230EF4E095E7FB0C943A23E92F9C
:1043B0000E94622358F3BA176207730784079507B0
:1043C00020F079F4A6F50C9484230EF4E0950B2EDE
:1043D000BA2FA02D0B01B90190010C01CA01A00157
:1043E0001124FF27591B99F0593F50F4503E68F1B2
:1043F0001A16F040A22F232F342F4427585FF3CFF3
:10440000469537952795A795F0405395C9F77EF4C3
:104410001F16BA0B620B730B840BBAF09150A1F00C
:10442000FF0FBB1F661F771F881FC2F70EC0BA0F92
:10443000621F731F841F48F4879577956795B7951A
:10444000F7959E3F08F0B0CF9395880F08F0992715
:10445000EE0F9795879508950E94162308F481E042
:1044600008950E9445220C9451230E944A2358F03B
:104470000E94432340F029F45F3F29F00C943A2333
:1044800051110C9485230C9440230E94622368F3FD
:104490009923B1F3552391F3951B550BBB27AA27FD
:1044A00062177307840738F09F5F5F4F220F331F37
:1044B000441FAA1FA9F335D00E2E3AF0E0E832D0FF
:1044C00091505040E695001CCAF72BD0FE2F29D002
:1044D000660F771F881FBB1F261737074807AB07D4
:1044E000B0E809F0BB0B802DBF01FF2793585F4F49
:1044F0003AF09E3F510578F00C943A230C948523B2
:104500005F3FE4F3983ED4F3869577956795B7952A
:10451000F7959F5FC9F7880F911D9695879597F935
:104520000895E1E0660F771F881FBB1F62177307AE
:104530008407BA0720F0621B730B840BBA0BEE1FC3
:1045400088F7E09508950E94AA226894B1110C940E
:10455000852308950E946A2388F09F5798F0B92F09
:104560009927B751B0F0E1F0660F771F881F991FA8
:104570001AF0BA95C9F714C0B13091F00E948423A3
:10458000B1E008950C948423672F782F8827B85FB3
:1045900039F0B93FCCF3869577956795B395D9F700
:1045A0003EF490958095709561957F4F8F4F9F4F0A
:1045B0000895E89409C097FB3EF490958095709516
:1045C00061957F4F8F4F9F4F9923A9F0F92F96E95F
:1045D000BB279395F695879577956795B795F111D4
:1045E000F8CFFAF4BB0F11F460FF1BC06F5F7F4F71
:1045F0008F4F9F4F16C0882311F096E911C0772383
:1046000021F09EE8872F762F05C0662371F096E88B
:10461000862F70E060E02AF09A95660F771F881F5A
:10462000DAF7880F9695879597F90895990F0008FE
:10463000550FAA0BE0E8FEEF16161706E807F90774
:10464000C0F012161306E407F50798F0621B730B0F
:10465000840B950B39F40A2661F0232B242B252B90
:1046600021F408950A2609F4A140A6958FEF811D33
:10467000811D089597F99F6780E870E060E00895D4
:104680009FEF80EC089500240A941616170618066A
:104690000906089500240A94121613061406050646
:1046A0000895092E0394000C11F4882352F0BB0FD7
:1046B00040F4BF2B11F460FF04C06F5F7F4F8F4F3A
:1046C0009F4F089557FD9058440F551F59F05F3F75
:1046D00071F04795880F97FB991F61F09F3F79F024
:1046E00087950895121613061406551FF2CF4695A6
:1046F000F1DF08C0161617061806991FF1CF869528
:104700007105610508940895E894BB27662777270B
:10471000CB0197F908950E94162308F48FEF0895AE
:104720000E94A3230C9451230E94432338F00E943B
:104730004A2320F0952311F00C943A230C94402343
:1047400011240C9485230E94622370F3959FC1F37A
:10475000950F50E0551F629FF001729FBB27F00D2F
:10476000B11D639FAA27F00DB11DAA1F649F662784
:10477000B00DA11D661F829F2227B00DA11D621FD3
:10478000739FB00DA11D621F839FA00D611D221F8D
:10479000749F3327A00D611D231F849F600D211D71
:1047A000822F762F6A2F11249F5750409AF0F1F0F4
:1047B00088234AF0EE0FFF1FBB1F661F771F881F5D
:1047C00091505040A9F79E3F510580F00C943A2338
:1047D0000C9485235F3FE4F3983ED4F38695779558
:1047E0006795B795F795E7959F5FC1F7FE2B880F03
:1047F000911D9695879597F9089519F416F40C94E0
:1048000040230C9464250E946A23B8F39923C9F3CA
:10481000B6F39F57550B87FF0E9472250024A0E630
:1048200040EA900180585695979528F4805C660F71
:10483000771F881F20F026173707480730F4621BC0
:10484000730B840B202931294A2BA69517940794C2
:10485000202531254A2758F7660F771F881F20F03B
:1048600026173707480730F4620B730B840B200DB3
:10487000311D411DA09581F7B901842F9158880FF2
:104880009695879508950F931F93CF93DF9382306A
:10489000910510F482E090E0E091A30DF091A40D59
:1048A00020E030E0A0E0B0E0309719F14081518184
:1048B0000281138148175907C8F08417950769F4D6
:1048C000109731F012960C93129713961C9327C0F1
:1048D0000093A30D1093A40D22C02115310519F0EA
:1048E0004217530718F49A01BD01EF01DF01F801E7
:1048F000DBCF21153105F9F0281B390B24303105A8
:1049000080F48A819B816115710521F0FB019383FD
:10491000828304C09093A40D8093A30DFE01329670
:1049200044C0FE01E20FF31F81939193225031099D
:10493000398328833AC02091A10D3091A20D232BF9
:1049400041F420910202309103023093A20D209392
:10495000A10D20910002309101022115310541F491
:104960002DB73EB74091040250910502241B350B30
:10497000E091A10DF091A20DE217F307A0F42E1B18
:104980003F0B2817390778F0AC014E5F5F4F2417B3
:10499000350748F04E0F5F1F5093A20D4093A10DB5
:1049A0008193919302C0E0E0F0E0CF01DF91CF91DD
:1049B0001F910F910895CF93DF93009709F481C061
:1049C000FC01329713821282A091A30DB091A40D25
:1049D000109781F420813181820F931F2091A10DC6
:1049E0003091A20D2817390751F5F093A20DE093ED
:1049F000A10D67C0ED0120E030E0CE17DF0740F4E5
:104A00004A815B819E0141155105F1F0EA01F5CF24
:104A1000D383C28340815181840F951FC817D90762
:104A200059F488819981840F951F02969183808320
:104A30008A819B81938382832115310529F4F09328
:104A4000A40DE093A30D3DC0E901FB83EA834991E6
:104A50005991C40FD51FEC17FD0761F48081918136
:104A6000840F951F0296E90199838883828193813F
:104A70009B838A83E0E0F0E012968D919C911397DE
:104A8000009719F0FD01DC01F7CF8D919C911197F2
:104A90009D012E5F3F4F820F931F2091A10D3091FA
:104AA000A20D2817390769F4309729F41092A40D44
:104AB0001092A30D02C013821282B093A20DA09394
:104AC000A10DDF91CF9108959F3F31F0915020F4D7
:104AD000879577956795B795880F911D96958795DA
:104AE00097F9089591505040660F771F881FD2F7AD
:104AF0000895DB018F939F930E94E625BF91AF91AC
:104B0000A29F800D911DA39F900DB29F900D112427
:104B1000089597FB072E16F4009407D077FD09D06F
:104B20000E94F12507FC05D03EF4909581959F4F9A
:104B30000895709561957F4F0895A1E21A2EAA1BE2
:104B4000BB1BFD010DC0AA1FBB1FEE1FFF1FA2173D
:104B5000B307E407F50720F0A21BB30BE40BF50B3A
:104B6000661F771F881F991F1A9469F760957095C3
:104B7000809590959B01AC01BD01CF010895052E54
:104B800097FB1EF400940E94D62557FD07D00E9483
:104B90009D2507FC03D04EF40C94D62550954095E6
:104BA000309521953F4F4F4F5F4F089590958095D9
:104BB000709561957F4F8F4F9F4F0895EE0FFF1FA8
:104BC000881F8BBF0790F691E02D19940E9405264F
:104BD000A59F900DB49F900DA49F800D911D112451
:104BE0000895AA1BBB1B51E107C0AA1FBB1FA61734
:104BF000B70710F0A61BB70B881F991F5A95A9F786
:104C000080959095BC01CD010895A29FB001B39FFE
:104C1000C001A39F700D811D1124911DB29F700DC5
:0C4C2000811D1124911D0895F894FFCF10
:104C2C000000A50D2000726F7373657269616C5F73
:104C3C006D7367732F526571756573745061726112
:104C4C006D0000000000F409950392038F0300002F
:104C5C000000C20939033603330301030206040CB6
:104C6C000809000000000016D315CB15B715A815C0
:104C7C00A7150000000035122F16BE128212A212C8
:104C8C0077120000000072069B052A032703000020
:104C9C000000A206C5050702040200000000441330
:104CAC001613DE12ED11D711A61185115111301109
:104CBC00DA10A21000000000E9082E0730032D03C3
:104CCC0000000000FE01FE01FE01FE0100000000DC
:104CDC000E02D00AFF0100000000E1050A020702E3
:104CEC00040200000000CF048904860483043966A2
:104CFC00313935663838313234366664666132376C
:104D0C0039386431643365656263613834610067D6
:104D1C00656F6D657472795F6D7367732F54776906
:104D2C007374004D6573736167652066726F6D20D7
:104D3C006465766963652064726F707065643A208F
:104D4C006D657373616765206C6172676572207441
:104D5C0068616E206275666665722E003461383447
:104D6C003262363566343133303834646332623112
:104D7C003066623438346561376631370067656F89
:104D8C006D657472795F6D7367732F566563746F9D
:104D9C0072330039663065393862646136353938BA
:104DAC003139383664646635336166613761343065
:104DBC0065343900313161626437333163323539EE
:104DCC0033333236316364363138336264313264B2
:104DDC003632393500726F7373657269616C5F6D51
:104DEC007367732F4C6F67003061643531663838E8
:104DFC00666334343839326638633130363834309F
:104E0C00373736343630303500726F7373657269EC
:104E1C00616C5F6D7367732F546F706963496E6655
:104E2C006F0063643731363663373463353532633C
:104E3C003331316662636332666535613762633282
:104E4C003839007374645F6D7367732F54696D65C3
:104E5C00002F776865656C5F696E73747275637427
:064E6C00696F6E73000087
:00000001FF
