:100000000C94CB010C94FC010C94FC010C94FC01AD
:100010000C94FC010C94FC010C94FC010C94FC016C
:100020000C94FC010C94FC010C94FC010C94FC015C
:100030000C94FC010C94FC010C94FC010C94FC014C
:100040000C94FC010C94FC010C94FC010C94FC013C
:100050000C94FC010C94FC010C94FC010C94940E87
:100060000C94FC010C942C140C9454130C94FC016F
:100070000C94FC010C94FC010C94FC010C94FC010C
:100080000C94FC010C94FC010C94FC010C94FC01FC
:100090000C94F9130C9415130C94FC010C94C118D6
:1000A0000C94FC010C94FC010C94FC010C94FC01DC
:1000B0000C94FC010C94FC010C94FC010C94FC01CC
:1000C0000C94FC010C94FC010C94FC010C94C613E0
:1000D0000C94D6120C94FC010C9493130C9497126C
:1000E0000C94FC01F70EFB0EFF0E030F070F0B0F16
:1000F0000F0F3A10411048104F1056106E105D103F
:100100006E106410171A1A1A0D1A111A511A1E1AA3
:10011000221A281A2C1A301A361A3A1A3E1A511A6A
:10012000441A481A4C1A0C94B6050C94F1110C940C
:10013000A4040C9403020C9405030C9408030C947F
:1001400041100C9456170C946E100C9427170C94B5
:10015000481A0C9493060C945B040C94DE160C94D1
:10016000030E0C94FC020C940D1A0C94070F0C94C3
:10017000221A0C94361A0C9464030C94111A0C94E1
:100180000B0F0C9447060C94281A0C94B8110C947D
:100190001A1A0C94FE010C94C10F0C945E040C947A
:1001A0000E030C94CF160C94301A0C9406020C9487
:1001B0005D100C94B3100C94030F0C94DE0E0C9491
:1001C000F70E0C94F80C0C941F120C944C1A0C940F
:1001D0003A100C946C0F0C9458040C9403070C9474
:1001E000FF020C9402030C9477060C9464100C9498
:1001F000FA100C9471100C94E7060C9409020C94FC
:100200000F0F0C94CE160C94160F0C94B9110C947D
:100210000B030C94FB0E0C94CB060C94171A0C9445
:10022000FF0E0C948D0F0C9429100C94BE100C949E
:10023000151D0C94DE100C9413100C9456100C9495
:1002400067030C9470050C946A030C942B0C0C94AB
:10025000F2160C94441A0C94BE080C94D10D0C9414
:10026000511A0C94FA160C941E1A0C949A050C94BC
:100270003A1A0C940D020C94AF060C94E20F0C94F5
:100280003E1A0C9448100C942C1A0C944F10000039
:10029000090A02080B0C0D07060304010000000008
:1002A000000000000000000000000000000000004E
:1002B0000000000000000000000011100F0000000E
:1002C000000000000000000000000000000000002E
:1002D0000000000000002200250028002B002E0056
:1002E0003100340002010000050108010B0100008B
:1002F0002100240027002A002D00300033000101D6
:100300000000040107010A010505050507050808A5
:100310000808020202020A0A08080404040401018F
:1003200001010101010103030303030303030407A4
:1003300007070C0C0C0C0C0C0C0C0202020206063B
:100340000606060606060B0B0B0B0B0B0B0B01022E
:1003500010202008081020401020408002010201D7
:10036000080402010102040810204080804020108F
:1003700008040201800402018040201008040201E8
:100380000804020101020408102040800102040850
:1003900010204080151D11241FBECFEFD1E2DEBF1B
:1003A000CDBF00E00CBF14E0A0E0B2E0ECEAFCE45A
:1003B00000E00BBF02C007900D92A634B107D9F739
:1003C0002DE0A6E4B4E001C01D92AD39B207E1F71B
:1003D00011E0CBECD1E000E006C021970109802FAD
:1003E000FE010E941E26CA3CD10780E00807A9F73B
:1003F0000E94741B0C940E210C9400008A579B4F92
:10040000FC01808108958EEC92E008958FEE92E0D9
:100410000895FC0186A197A10895AF92BF92CF9253
:10042000DF92EF92FF920F931F93CF93DF9300D051
:100430001F921F92CDB7DEB7643671053CF0FC0108
:10044000EA57FB4F2081222309F477C0DA017B01B0
:100450008C01BC01615E7D4FED91FC910190F081BA
:10046000E02DCA011995680128EEC21A2DEFD20AB3
:100470002FEFD6012C93F801E75EFD4F2EEF20837E
:1004800031968083319690833196292F280F2095BD
:1004900020833196E0821696FC9245E050E020E001
:1004A00030E0DC011696A417B50734F06191260FF1
:1004B000311D4F5F5F4FF7CF7C01B8E0EB0EF11CB1
:1004C000800F911FFC01E15EFD4F20952083E1E04C
:1004D000EE16E2E0FE06BCF45601C5018C199D093A
:1004E0008E159F056CF5D80112968D919C911397EE
:1004F000F50161915F01DC01ED91FC910190F081CA
:10050000E02D1995EACF82E392E09A83898383E014
:100510008B8383E093E09D838C83D801ED91FC91E4
:100520000190F081E02DAE014F5F5F4F67E070E01A
:10053000C80119958FEF9FEF04C080E090E001C0E3
:10054000C7010F900F900F900F900F90DF91CF91F8
:100550001F910F91FF90EF90DF90CF90BF90AF90E1
:100560000895CF92DF92EF92FF92FC0110821182E8
:1005700012821382DB0120E030E04D9150E0022E28
:1005800002C0440F551F0A94E2F7052E000C660BBB
:10059000770BC080D180E280F3804C295D296E29E1
:1005A0007F294083518362837383285F3F4F2032CA
:1005B000310519F7FF90EF90DF90CF900895CF921B
:1005C000DF92EF92FF9220E030E06A017B01022E81
:1005D00004C0F694E794D794C7940A94D2F7FC0128
:1005E000C192CF01285F3F4F2032310571F7FF9054
:1005F000EF90DF90CF9008958CE393E008958DE520
:1006000093E0089583E793E0089586E092E00895EB
:1006100084E993E0089585EB93E008954F925F920B
:100620006F927F928F929F92AF92BF92EF92FF92C2
:100630000F931F93CF93DF9300D01F92CDB7DEB7F8
:100640007C018B01FB018191BF01F7018283CE0107
:1006500001960E94B10289819A81AB81BC814C01D3
:100660005D01F5E08F0E911CA11CB11CA8014C5F2F
:100670005F4FFA0125E030E02901612C712C48140C
:1006800059046A047B0428F4618161932F5F3F4F12
:10069000F3CFF801E80FF91F1482F7015483438365
:1006A00005960F900F900F900F90DF91CF911F91B3
:1006B0000F91FF90EF90BF90AF909F908F907F90A1
:1006C0006F905F904F90089588EC93E0089589EEC5
:1006D00093E008954F925F926F927F928F929F92D4
:1006E000AF92BF92CF92DF92EF92FF920F931F9340
:1006F000CF93DF93CDB7DEB72C970FB6F894DEBF5C
:100700000FBECDBF7C018B01DB018C9190E0F70126
:100710009383828311962C91922B938382836E5FB5
:100720007F4FCE0101960E94B10289809A80AB80F2
:10073000BC8024013501F6E04F0E511C611C711C78
:1007400098012B5F3F4FF90186E090E0AC0160E03B
:1007500070E0441555056605770520F44181419305
:100760000196F4CFF801E80DF91D1582D701159611
:100770003C932E931497B4016A5F7F4F600F711FF3
:10078000CE0105960E94B102BAE08B0E911C4D80FD
:100790005E806F807884A401092C000C660B770BB7
:1007A000440D551D661D771DD801A80DB91DCD013D
:1007B000801B910B5C01C12CD12CA416B506C6067A
:1007C000D70628F48D91FD0132978083F0CF540134
:1007D000A40CB51CB8016A0D7B1DFB01319710827A
:1007E000C4010197800F911FF70197838683CE0183
:1007F00009960E94B10295012C5F3F4F89859A8529
:10080000AB85BC852901032E000C66087708480ECD
:10081000591E6A1E7B1EF5013396E00FF11FA901D8
:100820004A01A12CB12C84149504A604B70428F421
:10083000618161934F5F5F4FF3CF820F931FF80188
:10084000E80FF91FDF0111971C9221503109020FA7
:10085000131FD70119961C930E931897218142817B
:1008600050E060E070E0BA0155274427522B208108
:10087000422B2381722BF701428753876487758748
:1008800004962C960FB6F894DEBF0FBECDBFDF9155
:10089000CF911F910F91FF90EF90DF90CF90BF907D
:1008A000AF909F908F907F906F905F904F90089542
:1008B00082E094E0089583E294E00895FC01DB0176
:1008C0004C9150E060E070E0428353836483758311
:1008D00011968C911197582B4283538364837583AF
:1008E00012968C911297682B42835383648375838D
:1008F00013968C911397782B42835383648375836B
:1009000014964C91149750E060E070E04683578352
:100910006087718715968C911597582B468357835E
:100920006087718716968C911697682B468357833C
:100930006087718717968C91782B468357836087E1
:10094000718788E090E00895DC01FB0112968C919C
:100950001297808313968C911397818314968C91B0
:100960001497828315968C911597838316968C9194
:100970001697848317968C911797858318968C9178
:100980001897868319968C91878388E090E0089564
:100990008F929F92AF92BF92CF92DF92EF92FF928F
:1009A0000F931F93FC01DB01C380C294C69427E020
:1009B000C2228C2C912CA12CB12C8D929D92AD92A7
:1009C000BC921397048110E020E030E043E0000F78
:1009D000111F221F331F4A95D1F768017901C828DA
:1009E000D928EA28FB28CD92DD92ED92FC9213974C
:1009F000458150E060E070E01BE0440F551F661F2A
:100A0000771F1A95D1F78A019B010C291D292E29E0
:100A10003F290D931D932D933C93139746814F705F
:100A200050E060E070E083E1440F551F661F771FC0
:100A30008A95D1F7402B512B622B732B4D935D93ED
:100A40006D937C931397868182958F7007810F77C2
:100A500010E020E030E094E0000F111F221F331F50
:100A60009A95D1F7082B0115110521053105A1F043
:100A7000005813402109310997E1000F111F221F6F
:100A8000331F9A95D1F7042B152B262B372B0D935B
:100A90001D932D933C9313974781407850E060E07D
:100AA00070E0742F6627552744270D911D912D91D5
:100AB0003C911397402B512B622B732B4D935D93DD
:100AC0006D937C93139788E090E01F910F91FF90B6
:100AD000EF90DF90CF90BF90AF909F908F90089550
:100AE000EF92FF920F931F93CF93DF938C017B01C3
:100AF000BC016E5F7F4FC7010E94C804EC01B801C2
:100B00006A5F7F4FC7018C0F9D1F0E94C804C80FEA
:100B1000D91FB801665F7F4FC7018C0F9D1F0E94D0
:100B2000C8048C0F9D1FDF91CF911F910F91FF90F3
:100B3000EF900895EF92FF920F931F93CF93DF935F
:100B40007C01EB0102960E9470058C01BE01680FCA
:100B5000791FC70140960E947005800F911FDF9199
:100B6000CF911F910F91FF90EF9008950F931F93D6
:100B7000CF93DF938C01EC012696CE010E949A055B
:100B8000D8019496ED91FC919597CE01DF91CF918C
:100B90001F910F9119948F929F92AF92BF92CF9213
:100BA000DF92EF92FF92CF93DF93EC014A015B015A
:100BB000DB01CA0157E1B595A795979587955A9599
:100BC000D1F79927AA27BB270097A105B10521F0E6
:100BD00080589C4FAF4FBF4F188219821A82B501BF
:100BE000A40125E0440F551F661F771F2A95D1F7F2
:100BF0004B83B501A40133E07595679557954795EB
:100C00003A95D1F74C83B501A401EBE07595679552
:100C100057954795EA95D1F74D83B501A401F3E1C6
:100C20007595679557954795FA95D1F7242F2F70AD
:100C3000AC01BD0134E0440F551F661F771F3A9584
:100C4000D1F7422B4E836C017D0144E0F594E7948B
:100C5000D794C7944A95D1F720E030E0A901C501A7
:100C6000B4010E946C2287FD02C0CF8203C08C2D8C
:100C700080688F8388E090E0DF91CF91FF90EF90C4
:100C8000DF90CF90BF90AF909F908F900895EF929C
:100C9000FF920F931F93CF93DF937C018B01FC0195
:100CA0004281538164817581C8010E94CB05EC01AA
:100CB000F7014681578160857185C8018C0F9D1FA2
:100CC0000E94CB05C80FD91FF70142855385648563
:100CD0007585C8018C0F9D1F0E94CB058C0F9D1F31
:100CE000DF91CF911F910F91FF90EF900895EF92B8
:100CF000FF920F931F93CF93DF937C01EB0102963A
:100D00000E9447068C01BE01680F791FC7014096FB
:100D10000E944706800F911FDF91CF911F910F9185
:100D2000FF90EF90089562E08091B60C9091B70C1F
:100D30000E94ED1462E08091B20C9091B30C0E947D
:100D4000ED1462E08091B40C9091B50C0E94ED140A
:100D500062E08091B00C9091B10C0C94ED1461E0C4
:100D60008091B60C9091B70C0E94ED1461E08091D7
:100D7000B20C9091B30C0E94ED1461E08091B40C20
:100D80009091B50C0E94ED1461E08091B00C9091AF
:100D9000B10C0C94ED1462E08091B60C9091B70CFC
:100DA0000E94ED1462E08091B20C9091B30C0E940D
:100DB000ED1461E08091B40C9091B50C0E94ED149B
:100DC00061E08091B00C9091B10C0C94ED1461E055
:100DD0008091B60C9091B70C0E94ED1461E0809167
:100DE000B20C9091B30C0E94ED1462E08091B40CAF
:100DF0009091B50C0E94ED1462E08091B00C90913E
:100E0000B10C0C94ED142F923F924F925F926F921F
:100E10007F928F929F92AF92BF92CF92DF92EF928A
:100E2000FF920F931F93CF93DF93CDB7DEB76097F9
:100E30000FB6F894DEBF0FBECDBF8C016B01DB0196
:100E40008D909D90AD90BC90FC0182819381A48196
:100E5000B58188159905AA05BB0570F4B401660F24
:100E6000771F660F771F828593850E941121D80115
:100E70001B969C938E931A97F80182829382A48288
:100E8000B5829601812C912C540144E050E0B801C8
:100E90006A5F7F4F2C5F3F4FF80182819381A4816D
:100EA000B581FA0134961F0188169906AA06BB0679
:100EB00050F5D9011196FC90119712968C9190E003
:100EC000A0E0B0E0DC01992788279F29F901F08094
:100ED0008F29F380BF29F80186839783A087B18784
:100EE000DA01A101149782859385A80FB91F84E0C8
:100EF000FB0101900D928A95E1F7FFEF8F1A9F0A8F
:100F0000AF0ABF0AC7CF4601840E951ED4018C914B
:100F100011969C91119712964C901297512C612C1E
:100F2000712C320155244424592A482A13968C9155
:100F3000782A5F01F80184859585A685B785841593
:100F40009505A605B70570F4B201660F771F660F09
:100F5000771F848995890E941121D80155969C9309
:100F60008E935497F8014486558666867786C40129
:100F7000412C512C32019801205F3F4FD8011C9623
:100F80004D915D916D917C911F97F50134964416BA
:100F900055066606770698F5DC011596FC901597C0
:100FA00016964C91169750E060E070E0BA01552714
:100FB00044275F291496FC9014974F291796FC90AC
:100FC0007F29D80150964D935D936D937C935397F1
:100FD0005F01AC014819590954960D90BC91A02DA0
:100FE000A40FB51F44E0F90101900D924A95E1F775
:100FF000BFEF4B1A5B0A6B0A7B0A0496BFCFD60180
:10100000AA0DBB1D8C9111969C91119712968C90F4
:101010001297912CA12CB12C540199248824992A3F
:10102000882A13968C91B82A7F01F80186899789BE
:10103000A08DB18D88159905AA05BB0560F4B40192
:10104000660F771F848D958D0E941121D8015D96C2
:101050009C938E935C97F801868A978AA08EB18EB6
:10106000212C312C812C912C54019801265E3F4F6C
:101070003A872987F80186899789A08DB18D8816CE
:101080009906AA06BB0608F05FC0B6016E0D7F1D6B
:10109000CE0101960E94B10297012C5F3F4F388B21
:1010A0002F8749815A816B817C81C901330FAA0B3B
:1010B000BB0B2C013D01440E551E661E771E4B8650
:1010C0005C866D867E8623E0E20EF11CF601EE0D55
:1010D000FF1D2F853889C901A0E0B0E04B845C84F6
:1010E0006D847E8484159505A605B70528F4A18135
:1010F000A1932F5F3F4FEFCF6F847888460D571D28
:10110000F601E40FF51F31971082C30101978C0D92
:101110009D1DD8015B969C938E935A977A015C969D
:10112000ED91FC915D97E20DF31DA985BA858D9136
:101130009C9191838083BFEF8B1A9B0AAB0ABB0AF9
:10114000E2E02E0E311C96CFC70160960FB6F894E0
:10115000DEBF0FBECDBFDF91CF911F910F91FF90EA
:10116000EF90DF90CF90BF90AF909F908F907F9047
:101170006F905F904F903F902F9008952F923F92E5
:101180004F925F926F927F928F929F92AF92BF9297
:10119000CF92DF92EF92FF920F931F93CF93DF9343
:1011A000CDB7DEB7A6970FB6F894DEBF0FBECDBFA2
:1011B0008C010E9484144B015C01980125573B4F20
:1011C0003E8B2D8BF90180819181A281B381A50194
:1011D0009401281B390B4A0B5B0BDA01C901893FCB
:1011E0009A42A105B10510F035971082180144E824
:1011F000241A4BEF340AD1018D919C91892B79F0FF
:10120000F801E157FB4F80819181A281B38188155C
:101210009905AA05BB0518F4F10111821082980105
:101220002C573B4F3A8B298BA80140585B4F5C8B66
:101230004B8BC8014896988F8F8BD801AA57BB4F0C
:10124000BC8FAB8FF801EC56FB4FFE8FED8F215F0B
:101250003F4F38A32F8F42505109588B4F878659E3
:101260009B4F9A8F898F1996BAA3A9A3A5019401C0
:101270002C5E3F4F4F4F5F4F2BA33CA34DA35EA36C
:10128000F80184899589A689B789892B8A2B8B2BAC
:1012900081F4D80112968D919C911397DC01ED9108
:1012A000FC910680F781E02D19959C0197FF14C0F1
:1012B0008DC20E948414DC01CB0188199909AA0906
:1012C000BB09F801C488D588E688F788C816D9060E
:1012D000EA06FB06F0F6A1C2A989BA898D919C9114
:1012E0001197820F931F8D939C93F101408151813F
:1012F00047305105D9F4A98DBA8D8D919C911197E4
:10130000AC014F5F5F4F4D935C93F801E80FF91FFD
:10131000208FEF85F8898081918101979183808367
:10132000892B09F0ADCF88E090E032C0411551051E
:1013300039F52F3F310589F481E090E0F101918387
:1013400080832BA13CA14DA15EA1A9A1BAA12D939F
:101350003D934D935C93139793CF0E948414DC01CB
:10136000CB0188199909AA09BB0989389341A105BC
:10137000B10508F485CFF801EA57FB4F10824DC242
:1013800041305105A9F42E3F310531F482E090E05F
:10139000D1018D939C9374CFF10111821082AB8D9A
:1013A000BC8D8C9181116CCFC8010E946A1868CFE6
:1013B0004230510591F4EF85F88931832083A98D5E
:1013C000BA8D1D921C9283E090E0F101918380839D
:1013D000A989BA892D933C9353CF4330510569F4C1
:1013E000322F2227EF85F88980819181280F391FBC
:1013F0003183208384E090E0CBCF4430510581F4E9
:1014000060E071E00E94C9258F3F910531F485E0CD
:1014100090E0F1019183808333CF1182108230CF2D
:101420004530510571F4EB89FC893183208386E0D6
:1014300090E0D1018D939C93E989FA8931832083CF
:101440001FCF46305105A9F4322F2227AB89BC8922
:101450008D919C911197280F391F2D933C9387E014
:1014600090E0F10191838083AF85B8898D919C9143
:1014700057CF4830510509F003CFF1011182108296
:1014800060E071E00E94C9258F3F910509F0F8CE18
:10149000AB89BC898D919C91009709F0C6C0C801A9
:1014A0000E946A1886E292E09A8389831C821B82DA
:1014B0008BE393E09E838D8398878F839A878987B8
:1014C0001B861C861D861E866801B8EECB1ABBEFF4
:1014D000DB0A7801E6EBEE1AEBEFFE0A412C22E084
:1014E000522E612C712CD601ED91FC913097A9F10F
:1014F000848195819C838B83808191819E838D8360
:1015000082819381DC01ED91FC910480F581E02DD5
:10151000199598878F83D601ED91FC9182819381F3
:10152000DC01ED91FC910680F781E02D19959A87F9
:1015300089874B865C866D867E86D601ED91FC910F
:1015400060857185D801ED91FC910190F081E02DCD
:10155000AE014F5F5F4FC8011995B2E0CB0ED11CB1
:10156000EC14FD0409F0BFCF412C92E0592E612C00
:10157000712CF701A081B1811097E1F112968D9144
:101580009C9113979C838B8314968D919C911597B6
:101590009E838D83ED91FC9111970480F581E02D60
:1015A000CD01199598878F83D7018D919C91DC018E
:1015B000ED91FC910680F781E02D19959A87898736
:1015C0004B865C866D867E86D801ED91FC91C0804D
:1015D000D180F70180819181DC01ED91FC91028045
:1015E000F381E02D1995AE014F5F5F4FBC01C8013B
:1015F000F6011995F2E0EF0EF11CE214F30409F084
:10160000B8CFF801EA57FB4F81E0808331968082A2
:101610009182A282B382AD89BE898D929D92AD9254
:10162000BC9213978FEF9FEFFDC08A30910509F0B0
:10163000A2C086EC92E09A8389831B821C821D8261
:101640001E821F82188619861A860E948414F80149
:10165000C084D184E284F3849B01AC012C193D0940
:101660004E095F0969017A016F89788DCE01019673
:101670000E945E04C701B60128EE33E040E050E06E
:101680000E94DD25CB80DC80ED80FE80C20ED31E63
:10169000E41EF51ECB82DC82ED82FE829B01AC0152
:1016A00060E472E48FE090E00E94B925CF80D88496
:1016B000E984FA84DC01CB018C0D9D1DAE1DBF1D9C
:1016C0008F839887A987BA870E948414CF80D88493
:1016D000E984FA8436E3D31A35E6E30A34ECF30AF4
:1016E00028EE33E040E050E00E94DD2529013A0178
:1016F0009B01AC0160E472E48FE090E00E94B925A8
:10170000A7019601261B370B480B590BCA01B901DB
:10171000CB80DC80ED80FE8031E0C31AD108E10887
:10172000F108A7019601241935094609570929012D
:101730003A0120E03AEC4AE95BE30E94DD257301BF
:101740006201C20ED31EE41EF51ED8011C96CD9276
:10175000DD92ED92FC921F97F801608B718B828B6A
:10176000938B0E948414AD89BE896D937D938D9374
:101770009C93139785CD8630910559F46F89788DA8
:101780008D8D9E8D0E94030781E0EF8DF8A18083EF
:1017900077CD8B30910521F4AB8DBC8D1C9270CD33
:1017A000FC01EF53FE4FEE0FFF1FE00FF11F808192
:1017B0009181009709F464CDDC01ED91FC910190D9
:1017C000F081E02D6F89788D19955ACDF801EA578F
:1017D000FB4F8081882321F17801B9E7EB1ABBEF39
:1017E000FB0AF70180819181A281B381A501940157
:1017F000281B390B4A0B5B0BDA01C901853C994068
:10180000A105B10568F0C8010E946A18D7018D9240
:101810009D92AD92BC92139703C08EEF9FEF02C0D2
:1018200080E090E0A6960FB6F894DEBF0FBECDBF65
:10183000DF91CF911F910F91FF90EF90DF90CF90AC
:10184000BF90AF909F908F907F906F905F904F90E0
:101850003F902F9008958F929F92AF92BF92CF9218
:10186000DF92EF92FF92CF93DF93EC0120E030E024
:10187000A9016C817D818E819F810E94CB231816E6
:10188000D4F520E030E0A9016C817D818E819F81BB
:101890000E94CB2318160CF0A0C08091C60790912F
:1018A000C707A091C807B091C907815F984DAF4F96
:1018B000BF4F4091CA075091CB076091CC07709100
:1018C000CD0784179507A607B70761F08093CA076D
:1018D0009093CB07A093CC07B093CD078AEB97E00A
:1018E0000E945E158AEB97E00E9401188EEF97E048
:1018F0000E94BE08C6CF8090CE079090CF07A090E0
:10190000D007B090D10720E030E0A901C501B401B3
:101910000E946C22882309F460C0A5019401C501CE
:10192000B4010E94D0236B017C016091D6077091B5
:10193000D7078091D8079091D9079B01AC010E94ED
:1019400000229B01AC01C701B6010E9471220E94D6
:10195000E3226B017C012FEFC21AD20AE20AF20ADB
:1019600020E030E0A901C501B4010E94CB234091E1
:10197000C6075091C7076091C8077091C90780904A
:10198000CA079090CB07A090CC07B090CD0718164F
:101990002CF44C0D5D1D6E1D7F1D04C04C195D099E
:1019A0006E097F09481559056A057B05B1F040931A
:1019B000CA075093CB076093CC077093CD078AEB8F
:1019C00097E0DF91CF91FF90EF90DF90CF90BF90A5
:1019D000AF909F908F900C945E15DF91CF91FF9008
:1019E000EF90DF90CF90BF90AF909F908F90089531
:1019F0004F925F926F927F92AF92BF92CF92DF929F
:101A0000EF92FF920F931F93CF93DF93EC018B0123
:101A10008A81FB0180838B8181838C8182838D818C
:101A20008383DB0140E050E0BA01E4E0F0E014968B
:101A3000CA80DB80EC80FD80CF0104964C155D05EB
:101A40006E057F05C8F42A853B85E20FF31F3497A6
:101A5000D080F18032812381DC921196FC92119723
:101A600012963C93129713962C931397FC014F5F99
:101A70005F4F6F4F7F4FDBCF5F01A00EB11E2C85F4
:101A8000F50120832D8521832E8522832F852383B5
:101A9000D50140E050E0BA01CC84DD84EE84FF84BF
:101AA0009C012C5F3F4F4C155D056E057F05F8F4DA
:101AB000CD018A199B09EC88FD888E0D9F1DFC01C4
:101AC000D080E180F28083811496DC921497159681
:101AD000EC9215971696FC92169717968C9317977B
:101AE000C9014F5F5F4F6F4F7F4F1496D5CFF801FD
:101AF000E80FF91F8E8980838F898183888D828387
:101B0000898D83837901A12CB12C412C512C320178
:101B10008E899F89A88DB98D481659066A067B065D
:101B200080F5EC8DFD8DEA0DFB1DA081B181FD01DD
:101B300001900020E9F731976F01CA1ADB0AA6016C
:101B400060E070E0C8018E0D9F1D0E94DF02F4E08E
:101B5000EF0EF11CEC8DFD8DEA0DFB1D6081718196
:101B6000A601C8018E0D9F1D0E94F621EC0CFD1CE4
:101B70008FEF481A580A680A780AE2E0AE0EB11CE4
:101B8000C7CFC701DF91CF911F910F91FF90EF90C9
:101B9000DF90CF90BF90AF907F906F905F904F900D
:101BA0000895EF92FF920F931F93CF93DF938C01D1
:101BB0007B01DC0112962C911297FB012193CF013E
:101BC0001396ED91FC911497EF0109900020E9F72D
:101BD0002197CE1BDF0BAE0160E070E00E94DF02B8
:101BE000D80113966D917C911497AE01C7010596AB
:101BF0000E94F621CE010596DF91CF911F910F91A2
:101C0000FF90EF900895CF92DF92EF92FF920F93A3
:101C10001F93CF93DF937C018B01DC0112968C9193
:101C20001297FB01808313968C91139781831496EE
:101C3000ED91FC911597EF0109900020E9F72197AC
:101C4000CE1BDF0BAE0160E070E0C80102960E947F
:101C5000DF02D70114966D917C911597AE01C801F2
:101C600006960E94F621CE010696F701A681B7815D
:101C7000FD0101900020E9F731976F01CA1ADB0AD4
:101C8000A60160E070E0800F911F0E94DF022A969B
:101C9000D70116966D917C911797A601C8018C0FFC
:101CA0009D1F0E94F621CC0DDD1DD7011896ED91E8
:101CB000FC911997DF010D900020E9F711976D0154
:101CC000CE1ADF0AA60160E070E0C8018C0F9D1FEC
:101CD0000E94DF022496F70160857185A601C80184
:101CE0008C0F9D1F0E94F621C6018C0F9D1FD701EE
:101CF0001A966C911A971B964C911B971C963C91C7
:101D00001C971D962C91F801E80FF91F6083418301
:101D1000328323830496DF91CF911F910F91FF901F
:101D2000EF90DF90CF9008951F920F920FB60F9211
:101D300011242F933F938F939F93AF93BF938091E1
:101D4000470490914804A0914904B0914A0430910D
:101D5000460423E0230F2D3720F40196A11DB11D69
:101D600005C026E8230F0296A11DB11D209346044D
:101D70008093470490934804A0934904B0934A0485
:101D800080914B0490914C04A0914D04B0914E046D
:101D90000196A11DB11D80934B0490934C04A09318
:101DA0004D04B0934E04BF91AF919F918F913F919D
:101DB0002F910F900FBE0F901F901895CF93DF9328
:101DC000DC014770552766277727FA013197CD91B7
:101DD000DC911197E730F10530F48827EE58FF4F7A
:101DE0008F4F0C941E26EC81FD8161E01BC0EC81BD
:101DF000FD8165E017C0EC81FD8164E013C0EC81DA
:101E0000FD8166E00FC0EC81FD8162E00BC0EC81DA
:101E1000FD816AE007C0EC81FD8168E003C0EC81D0
:101E2000FD8169E0CD01DF91CF911994CF93DF93CC
:101E3000EC01CB01BA0126E030E040E050E00E9426
:101E4000FF25623071058105910559F18CF461150A
:101E5000710581059105F1F06130710581059105EC
:101E6000C1F5E881F9810480F581E02D65E02DC0A0
:101E7000643071058105910511F1D4F0653071056B
:101E80008105910531F5E881F9810480F581E02D26
:101E900066E01BC0E881F9810480F581E02D64E0F3
:101EA00014C0E881F9810480F581E02D61E00DC066
:101EB000E881F9810480F581E02D63E006C0E881C6
:101EC000F9810480F581E02D62E0CE01DF91CF91B0
:101ED0001994DF91CF91089543705527662777278E
:101EE000DC01ED91FC910480F581E02D423051053B
:101EF0006105710571F0433051056105710559F0B7
:101F0000413051056105710511F065E005C066E0DD
:101F100003C06AE001C069E01994CF93DF93EC013C
:101F2000CB01BA0123E030E040E050E00E94FF2501
:101F3000613071058105910581F06230710581057F
:101F4000910591F0672B682B692BC1F4E881F98129
:101F50000480F581E02D64E00DC0E881F981048002
:101F6000F581E02D61E006C0E881F9810480F5810A
:101F7000E02D62E0CE01DF91CF911994DF91CF91F6
:101F800008954370552766277727DC01ED91FC9172
:101F90000480F581E02D423051056105710571F035
:101FA000433051056105710559F041305105610516
:101FB000710511F062E005C063E003C061E001C09B
:101FC00060E01994CF93DF93EC01E881F9810480FC
:101FD000F581E02D6A81611162E0CE011995E881F9
:101FE000F9810480F581E02D8A81811102C061E0D0
:101FF00001C063E0CE0119958CA59DA5019739F02C
:10200000880F991F880F991F02970197F1F7E881B0
:10201000F9810480F581E02D6A81611162E0CE01D1
:10202000DF91CF911994CF93DF93EC0120E030E062
:10203000A9016C897D898E899F890E94CB231816FE
:102040001CF4E8A9F9A902C0EAA9FBA9DF91CF9184
:1020500019940F931F93DC0113960C91139710E0C2
:1020600009301105D8F5F8018827E758FF4F8F4F41
:102070000C941E26ED91FC9111970084F185E02DC2
:1020800029C0ED91FC9111970284F385E02D22C0C7
:10209000ED91FC9111970484F585E02D1BC0ED9125
:1020A000FC9111970684F785E02D14C0ED91FC9109
:1020B00011970088F189E02D0DC0ED91FC911197E9
:1020C0000288F389E02D06C0ED91FC9111970488F8
:1020D000F589E02DCD011F910F9119941F910F915A
:1020E00008950F931F93CF93DF93FC01A685B785C7
:1020F0008D01005C1F4FE8018881998101968F73E3
:102100009927AD014E5B5F4FEA012881398128177D
:102110003907D1F3E80128813981A20FB31F6C93ED
:10212000A685B785A05CBF4F11969C938E93A68918
:10213000B7892C9181E090E0078C02C0880F991F2D
:102140000A94E2F7822B8C9381E081A30488F589BD
:10215000E02D80818064808381E090E0DF91CF91E9
:102160001F910F910895FC0181A1882329F0A48972
:10217000B5898C9186FFFBCF11A20895FC01A4853F
:10218000B585FD01E05CFF4F208131813296808171
:1021900091812817390779F080819181A80FB91FA3
:1021A0008C91208131812F5F3F4F2F7333273183F3
:1021B000208390E008958FEF9FEF0895DC011C9637
:1021C000ED91FC911D97DF01A05CBF4F2D913C91DB
:1021D000119712968D919C9111972817390739F014
:1021E0008D919C91E80FF91F808190E008958FEF09
:1021F0009FEF0895FC0124853585F901E05CFF4FD0
:1022000080819181329620813181821B930B8F7363
:1022100099270895CF92DF92EF92FF92CF93DF93A9
:10222000EC016A017B014115514E6105710509F10F
:10223000EC89FD8981E090E008A002C0880F991F19
:102240000A94E2F7808360E079E08DE390E0A701F3
:1022500096010E94DD25DA01C9010197A109B109A2
:10226000B695A795979587959C01211580E138072C
:10227000A8F0EC89FD89108260E874E88EE190E0B6
:10228000A70196010E94DD25DA01C9010197A10984
:10229000B109B695A795979587959C01E889F98925
:1022A0003083EA89FB89208319A2EE89FF89408166
:1022B00081E090E09C010C8C02C0220F331F0A9435
:1022C000E2F7242B2083EE89FF8940819C010D8C4D
:1022D00002C0220F331F0A94E2F7242B2083EE89D9
:1022E000FF8940819C010E8C02C0220F331F0A948B
:1022F000E2F7242B2083EE89FF8920810F8C02C016
:10230000880F991F0A94E2F7809582238083DF91DA
:10231000CF91FF90EF90DF90CF9008958CE297E0FF
:102320000E94FA1082E896E00E94FA1088ED95E08B
:102330000E94FA108EE295E00C94FA10FB01E05C2A
:10234000FF4F20813181DB01AE5BBF4F4D915C912E
:102350002F5F3F4F2F7333274217530741F04081C0
:102360005181DB01A40FB51F8C9331832083089525
:102370000895CF92DF92EF92FF920F931F93CF9326
:10238000DF93EC019B81943041F0983031F0933031
:1023900031F0963021F012E003C014E001C013E0E8
:1023A0002496E12CF12CC62ED12C01E0C6010E2C76
:1023B00002C0959587950A94E2F76C8180FD6027AD
:1023C00089910E94EC198FEFE81AF80AE11670F370
:1023D000DF91CF911F910F91FF90EF90DF90CF9001
:1023E0000895CF93DF93FC012381222329F1EC018F
:1023F00084810E94A2188D810E94A2188B81843052
:1024000011F0883029F48E810E94A2188F8105C0B6
:10241000833011F0863019F48E810E94A2188FA5A6
:102420008F3F51F00E94A2186EA581E068278FA50A
:10243000DF91CF910C94EC19DF91CF910895CF9358
:10244000DF93FC0123812223A1F0EC010190F081B4
:10245000E02D0480F581E02D60E019958FA58F3F78
:1024600041F00E94A2186EA58FA5DF91CF910C9428
:10247000EC19DF91CF910895CF93C42FFC01808197
:1024800091E09093760480939804109277041092D0
:1024900099048AE994E00E9427176C2F8AE994E056
:1024A0000E942717CF910C9490140F931F93CF93F2
:1024B000DF93042FD52F122FC32FFC01808191E0D1
:1024C0009093760480939804109277041092990464
:1024D000F4E06F9FB00111246A5F7F4F8AE994E0B6
:1024E0000E942717802F9D2F0E94E8148D2F90E0C7
:1024F0000E94E814812F9C2F0E94E8148C2F90E0FA
:102500000E94E814DF91CF911F910F910C949014C9
:102510009A01CD96211540E1340728F020E030E003
:1025200040E050E102C040E050E00C9455121F9290
:102530000F920FB60F9211240BB60F922F933F9369
:102540008F939F93EF93FF932091E6043091E704DC
:102550008091E8049091E9042817390731F48091BB
:1025600031018F7D8093310114C0E091E804F09136
:10257000E904EA55FB4F20818091E8049091E90439
:1025800001968F7399279093E9048093E804209330
:102590003601FF91EF919F918F913F912F910F9075
:1025A0000BBE0F900FBE0F901F9018951F920F92A9
:1025B0000FB60F9211240BB60F922F933F938F9368
:1025C0009F93EF93FF932091900530919105809117
:1025D0009205909193052817390731F48091D10025
:1025E0008F7D8093D10014C0E0919205F091930506
:1025F000E05BFA4F208180919205909193050196BE
:102600008F73992790939305809392052093D6001A
:10261000FF91EF919F918F913F912F910F900BBE62
:102620000F900FBE0F901F9018951F920F920FB62C
:102630000F9211240BB60F922F933F938F939F937A
:10264000EF93FF9320913A0630913B0680913C0630
:1026500090913D062817390731F48091C9008F7D8C
:102660008093C90014C0E0913C06F0913D06E6500D
:10267000FA4F208180913C0690913D0601968F7320
:10268000992790933D0680933C062093CE00FF91BE
:10269000EF919F918F913F912F910F900BBE0F90D3
:1026A0000FBE0F901F9018951F920F920FB60F92AA
:1026B00011240BB60F922F933F938F939F93EF9319
:1026C000FF932091E4063091E5068091E606909113
:1026D000E7062817390731F48091C1008F7D809378
:1026E000C10014C0E091E606F091E706EC55F94F01
:1026F00020818091E6069091E70601968F739927D5
:102700009093E7068093E6062093C600FF91EF9131
:102710009F918F913F912F910F900BBE0F900FBE05
:102720000F901F9018951F920F920FB60F921124C1
:102730000BB60F922F933F934F935F936F937F93BB
:102740008F939F93AF93BF93EF93FF93809130014B
:1027500082FD07C0809136016AEE74E00E949E11EE
:1027600002C080913601FF91EF91BF91AF919F918F
:102770008F917F916F915F914F913F912F910F902A
:102780000BBE0F900FBE0F901F9018951F920F92C7
:102790000FB60F9211240BB60F922F933F934F93C6
:1027A0005F936F937F938F939F93AF93BF93EF93B9
:1027B000FF938091D00082FD07C08091D60064E92C
:1027C00075E00E949E1102C08091D600FF91EF91AA
:1027D000BF91AF919F918F917F916F915F914F9139
:1027E0003F912F910F900BBE0F900FBE0F901F9037
:1027F00018951F920F920FB60F9211240BB60F92DD
:102800002F933F934F935F936F937F938F939F93F8
:10281000AF93BF93EF93FF938091C80082FD07C0F1
:102820008091CE006EE376E00E949E1102C08091FE
:10283000CE00FF91EF91BF91AF919F918F917F91CA
:102840006F915F914F913F912F910F900BBE0F9021
:102850000FBE0F901F9018951F920F920FB60F92F8
:1028600011240BB60F922F933F934F935F936F9367
:102870007F938F939F93AF93BF93EF93FF93809139
:10288000C00082FD07C08091C60068EE76E00E941D
:102890009E1102C08091C600FF91EF91BF91AF9150
:1028A0009F918F917F916F915F914F913F912F9168
:1028B0000F900BBE0F900FBE0F901F9018953FB753
:1028C000F89480914B0490914C04A0914D04B091E8
:1028D0004E0426B5A89B05C02F3F19F00196A11DF7
:1028E000B11D3FBFBA2FA92F982F8827820F911DA6
:1028F000A11DB11DBC01CD0142E0660F771F881FED
:10290000991F4A95D1F708952FB7F894609147041D
:10291000709148048091490490914A042FBF089512
:1029200030919904313208F047C0809175048111CB
:10293000FCCF9091980422E02093750421E020932D
:1029400074042FEF20937304109272043093710477
:10295000E8E7F4E0A1E5B4E020E0321721F041918E
:102960004D932F5FFACF1092500420915004990F8D
:10297000922B9093500490914F04913041F4109217
:102980004F04909150049093BB0095EC01C095EEDC
:102990009093BC00909175049230E1F39091730490
:1029A0009F3F79F080917304803241F080917304ED
:1029B000803331F084E005C081E003C082E001C0D3
:1029C00083E010927704109299041092760408958F
:1029D000682F8AE994E00C9427171F93CF93DF9315
:1029E000EC018C8583FF06C0613011F4885F07C05D
:1029F000885005C0613011F4805F01C080518C8720
:102A00008C858F738C8740EF5FE06C818D859E8510
:102A10000E94881240EF5FE06F818D859E850E9445
:102A20008812EC85E695E695E695E83028F4F0E026
:102A3000E65CFD4F108101C010E08D859E8520E091
:102A400030E010FF03C040E050E102C040E050E041
:102A50006E81CD960E9455128D859E8520E030E0D6
:102A600011FF03C040E050E102C040E050E0688543
:102A7000CD960E9455128D859E8520E030E012FF94
:102A800003C040E050E102C040E050E06D81CD96CF
:102A90000E9455128D859E8520E030E013FF03C013
:102AA00040E050E102C040E050E06985CD960E94D0
:102AB00055128C85DF91CF911F9108954F925F92AF
:102AC0006F927F928F929F92AF92BF92CF92DF923E
:102AD000EF92FF920F931F93CF93DF93EC01C8887F
:102AE000D988EA88FB888C859D85AE85BF85C81A04
:102AF000D90AEA0AFB0A6C897D898E899F899B0124
:102B0000AC010E94D0234B015C016C8D7D8D8E8DBC
:102B10009F8D9B01AC010E9400229B01AC01C5016D
:102B2000B4010E9471220E94E322C114D104E10485
:102B3000F10499F462307105810591050CF076C0BD
:102B40001CA21DA21EA21FA21C8A1D8A1E8A1F8AE9
:102B50001CAA1DAA1EAA1FAAEDC00CA91DA92EA958
:102B60003FA91C141D041E041F04FCF410161106BA
:102B7000120613064CF46C157D058E059F054CF569
:102B80002A81211153C025C00115110521053105E8
:102B900009F44CC06C157D058E059F050CF046C0F0
:102BA0008A81813009F042C036C010161106120623
:102BB0001306ECF40027112798010C191D092E09A2
:102BC0003F0960177107820793071CF42A8121309F
:102BD00069F59B01AC0188279927DC01821B930BC7
:102BE000A40BB50B8CAB9DABAEABBFAB1FC001153F
:102BF000110521053105D1F08824992454018C1840
:102C00009D08AE08BF08681579058A059B0574F410
:102C10008A8181110BC030952095109501951F4F29
:102C20002F4F3F4F0CAB1DAB2EAB3FAB8CA89DA8DD
:102C3000AEA8BFA881149104A104B10489F488ADA1
:102C400099ADAAADBBAD8CAF9DAFAEAFBFAF81E0CC
:102C50001C141D041E041F040CF080E08A833FC076
:102C6000CCACDDACEEACFFACA7019601C701B60160
:102C70000E9400222B013C01C501B4010E941B23CC
:102C800020E030E040E850E40E94D02320E030E033
:102C900040E85FE30E9400229B01AC01C301B20146
:102CA0000E9471229B01AC01C701B6010E94FF2165
:102CB0003B016C01FE01E05CFF4FE080F18002818E
:102CC00013819701A8010E94CB23181614F47301F5
:102CD0008601C701D8018CAF9DAFAEAFBFAF3FEF4C
:102CE000831A930AA30AB30A8CAA9DAAAEAABFAA02
:102CF000CCACDDACEEACFFACC701B6010E94EA2261
:102D00006CA37DA38EA39FA3A701960160E074E24C
:102D100084E799E40E9471226C8B7D8B8E8B9F8B54
:102D20002A81211107C0DC01CB01B0588C8B9D8B0F
:102D3000AE8BBF8BDF91CF911F910F91FF90EF90E2
:102D4000DF90CF90BF90AF909F908F907F906F90CB
:102D50005F904F90089585ED8093BC008091BC00FA
:102D600084FDFCCF109275040895613298F420918F
:102D70007504243089F46093540D282FA4E3BDE03A
:102D8000FC018E2F821B861718F481918D93F9CF49
:102D900080E0089581E0089582E008950895E0912B
:102DA000980D8091970DE81730F4F0E0E958F24F54
:102DB000808190E008958FEF9FEF08959091980D96
:102DC0008091970D981750F4E92FF0E0E958F24FF1
:102DD000208130E09F5F9093980D02C02FEF3FEF6E
:102DE000C90108958091970D90E02091980D821B64
:102DF00091090895CF92DF92EF92FF920F931F9364
:102E0000CF93DF937C01CB018A01209176042223AA
:102E100089F0EB016B01C40ED51ECC15DD0569F000
:102E20006991D701ED91FC910190F081E02DC701EE
:102E30001995F3CF642F0E94B516C801DF91CF9189
:102E40001F910F91FF90EF90DF90CF900895CF9357
:102E5000DF931F92CDB7DEB76983209176042223DA
:102E6000D1F020919904203240F021E030E0FC01C3
:102E70003383228380E090E015C080917704E82FAF
:102E8000F0E0E858FB4F998190838F5F809377043F
:102E90008093990405C061E0CE0101960E94B516A9
:102EA00081E090E00F90DF91CF910895CF92DF9273
:102EB000EF92FF920F931F93CF93DF936C01EB017F
:102EC0007B01E40EF51E00E010E0CE15DF0561F099
:102ED0006991D601ED91FC910190F081E02DC60140
:102EE0001995080F191FF1CFC801DF91CF911F91DC
:102EF0000F91FF90EF90DF90CF9008954F925F92E7
:102F00006F927F928F929F92AF92BF92CF92DF92F9
:102F1000EF92FF92CF93DF93EC016A017B0120E0F7
:102F200030E0A901C701B6010E946C2287FF04C0EE
:102F3000F7FAF094F7F8F0948C8C9D8CAE8CBF8CE3
:102F4000A7019601C501B4010E946C22882309F4EF
:102F500049C06CA97DA98EA99FA90E941B232B01A2
:102F60003C01A7019601C501B4010E9471229B0199
:102F7000AC01C301B2010E94D0230E94E3226CABDA
:102F80007DAB8EAB9FABA701960160E070E080E067
:102F900090E40E9471220E94432426E53EE04DE227
:102FA0005FE30E94D02320E034E244E759E40E942A
:102FB000D02368AF79AF8AAF9BAFCC8EDD8EEE8E1B
:102FC000FF8ECE01DF91CF91FF90EF90DF90CF90F9
:102FD000BF90AF909F908F907F906F905F904F9039
:102FE0000C945E15DF91CF91FF90EF90DF90CF9022
:102FF000BF90AF909F908F907F906F905F904F9019
:103000000895CF92DF92EF92FF92CF93DF93EC017E
:103010008CA19DA1AEA1BFA1892B8A2B8B2BB9F1CD
:103020000E945F146B017C0188A599A5AAA5BBA588
:10303000B701A601481B590B6A0B7B0B8CA19DA104
:10304000AEA1BFA1481759076A077B0700F12A8183
:103050008C859D85AE85BF85213021F40196A11D0B
:10306000B11D03C00197A109B1098C879D87AE8767
:10307000BF874C855D856E857F85CE010E942910B6
:10308000C8A6D9A6EAA6FBA6CE010E945E1520E03E
:1030900030E0A9016C897D898E899F890E946C220C
:1030A000811110C081E0C888D988EA88FB884C85E6
:1030B0005D856E857F85C416D506E606F70619F48C
:1030C00080E001C081E0DF91CF91FF90EF90DF9031
:1030D000CF9008950F931F93CF93DF93CDB7DEB7B3
:1030E0002A970FB6F894DEBF0FBECDBF8C0186ECD9
:1030F00092E09A8389831B821C821D821E821F821A
:10310000188619861A86D801ED91FC910190F081FC
:10311000E02DAE014F5F5F4F6AE070E0C801199586
:103120000E948414F80160877187828793872A96AA
:103130000FB6F894DEBF0FBECDBFDF91CF911F91C8
:103140000F91089590E0FC01E25BFC4F2491FC019B
:10315000E85FFC4F8491882399F090E0880F991FD5
:10316000FC01E251FD4FA591B491FC01EC52FD4FE1
:10317000859194918FB7F894EC91E22BEC938FBFEB
:1031800008951F920F920FB60F9211240BB60F9253
:103190002F933F934F935F936F937F938F939F935F
:1031A000AF93BF93EF93FF938091B900887F8036F0
:1031B00009F49CC068F5883209F45BC090F4803152
:1031C00009F454C038F4882309F4EFC0883009F4B6
:1031D0004DC0EFC0883109F44CC0803209F45DC0A5
:1031E000E8C0803409F468C048F4803309F455C05D
:1031F000883309F0DEC080937304D1C0803509F4B0
:103200004FC0883509F45DC0883409F0D2C0CFC002
:10321000883909F4C0C0A8F4883709F467C038F4C5
:10322000883609F463C0803709F460C0C2C08838AA
:1032300009F4B1C0803909F45FC0803809F0B9C021
:103240005BC0803B09F481C038F4803A09F466C061
:10325000883A09F47AC0ADC0803C09F4A0C0883C2B
:1032600009F49DC0883B09F483C0A3C08091500439
:1032700010C09091720480917104981770F5E091DC
:10328000720481E08E0F80937204F0E0EF5AFB4FDE
:1032900080818093BB0085EC7FC08093730487C0DE
:1032A000E091720481E08E0F809372048091BB00E4
:1032B000F0E0EF5AFB4F808390917204809171048B
:1032C00067C0E091720481E08E0F80937204809158
:1032D000BB00F0E0EF5AFB4F8083809174048111B2
:1032E00066C081E080934F0484EA5AC083E08093F3
:1032F00075041092760DCFCF8091760D803208F054
:103300004AC0E091760D81E08E0F8093760D80911A
:10331000BB00F0E0EA5AF24F8083BDCF8091760D7A
:10332000803230F4E091760DF0E0EA5AF24F1082EC
:103330000E94AB166091760D70E086E59DE0E0E0BE
:10334000F0E019951092760D2AC084E08093750400
:103350001092550D1092540DE0E0F0E01995809117
:10336000540D811105C081E08093540D1092340DED
:10337000E091550D81E08E0F8093550DF0E0EC5CEF
:10338000F24F80818093BB009091550D8091540D38
:10339000981708F480CF85E88093BC000AC085ECBC
:1033A0008093BC001092750404C0109273040E94B4
:1033B000AB16FF91EF91BF91AF919F918F917F914C
:1033C0006F915F914F913F912F910F900BBE0F9096
:1033D0000FBE0F901F901895362F90E0FC01E2571A
:1033E000FD4F4491FC01E25BFC4F2491FC01E85F3E
:1033F000FC4F9491992309F468C0442309F451C007
:1034000050E0FA013197E131F10508F04AC0882710
:10341000EE57FF4F8F4F0C941E26809180008F77C0
:1034200003C0809180008F7D809380003AC084B576
:103430008F7702C084B58F7D84BD33C08091B0008A
:103440008F7703C08091B0008F7D8093B00029C03A
:10345000809190008F7707C0809190008F7D03C08E
:1034600080919000877F809390001BC08091A00086
:103470008F7707C08091A0008F7D03C08091A0004E
:10348000877F8093A0000DC0809120018F7707C0B7
:10349000809120018F7D03C080912001877F8093E0
:1034A0002001E92FF0E0EE0FFF1FEC52FD4FA59138
:1034B000B4919FB7F894311104C08C9120952823C2
:1034C00002C0EC912E2B2C939FBF0895109275048F
:1034D00081E08093740410924F0461E084E10E94C3
:1034E000EC1961E085E10E94EC19E9EBF0E08081E4
:1034F0008E7F808380818D7F808388E48093B80075
:1035000085E48093BC0008958F929F92AF92BF9202
:10351000EF92FF921F93CF93DF937C018AE994E0AF
:10352000F701918380831092980D1092970D10925D
:103530007704109299040E94661AE701ED961092A2
:103540007704109299040E94661A40E060E0CE0170
:103550000E943C1280E496E0F7019483838385AD5A
:1035600091E09093760480939804109277041092DF
:10357000990460E08AE994E00E9427170E94901461
:10358000F70185AD909175049111FCCF91E0909376
:103590007504909374042FEF2093730410927204B7
:1035A000109271049093500490915004880F892BCD
:1035B0008093500480914F04813041F410924F0465
:1035C000809150048093BB0085EC01C085EE809310
:1035D000BC00809175048130E1F380917204811107
:1035E00003C09091720401C091E0A1E5B4E0E7E767
:1035F000FDE080E0891721F02D9121938F5FFACFB4
:103600001092980D8093970D8AE994E00E94DE163F
:10361000182F482F4F76406160E0CE010E943C1287
:1036200043E06EEFCE010E943C12412F60E0CE01DC
:103630000E943C120E945F147B0185E0882E912C31
:10364000A12CB12C0E945F146E197F09683E734053
:10365000C8F381E0881A9108A108B108E8E1EE1AE0
:10366000ECEFFE0A81149104A104B10459F7412F33
:10367000416A60E0CE010E943C1210E020E030E0A0
:1036800040E050E0612FCE010E9455121F5F1031C3
:10369000A9F7DF91CF911F91FF90EF90BF90AF906E
:1036A0009F908F900895FC01DC0115964D9614961D
:1036B0001C921E92139715961C92159712961C92A7
:1036C000129711961C9211971C921696A817B9077B
:1036D00071F711A614A610A617A211AE14AE10AE63
:1036E00017AA628365AF0895789484B5826084BD1B
:1036F00084B5816084BD85B5826085BD85B58160F6
:1037000085BD80916E00816080936E001092810073
:10371000809181008260809381008091810081602E
:1037200080938100809180008160809380008091EF
:10373000B10084608093B1008091B000816080937B
:10374000B0008091910082608093910080919100FF
:1037500081608093910080919000816080939000BF
:103760008091A10082608093A1008091A10081607E
:103770008093A1008091A00081608093A00080913F
:1037800021018260809321018091210181608093D9
:1037900021018091200181608093200180917A0035
:1037A000846080937A0080917A00826080937A00AE
:1037B00080917A00816080937A0080917A0080689D
:1037C00080937A001092C10040E855E260E070E01A
:1037D0008CE297E00E940A11409102085091030880
:1037E000609104087091050880910008909101088B
:1037F0000E940A1110927B0C10927A0C10927D0C90
:1038000010927C0C1092810C1092800C10927F0C04
:1038100010927E0CE8E4FCE080E090E02191319190
:10382000232B81F4FC01EE0FFF1FE85BF34F2EE426
:1038300037E0318320838C599F4F909351078093B9
:10384000500704C001968931910541F786EF9CE04D
:103850000E94841A88EB9CE00E94841A20E030E0E9
:1038600048EC52E46091D2077091D3078091D4075D
:103870009091D5070E946C22882309F453C080E000
:1038800090E0A8ECB2E48093D2079093D307A09382
:10389000D407B093D50780E090E4ACE1B6E4809320
:1038A000FA079093FB07A093FC07B093FD07809164
:1038B000EE079091EF07A091F007B091F10718166D
:1038C00019061A061B0674F56091CE077091CF0792
:1038D0008091D0079091D1079B01AC010E94D02329
:1038E0006B017C016091D6077091D7078091D80752
:1038F0009091D9079B01AC010E9400229B01AC0171
:10390000C701B6010E9471220E94E3226093EE0774
:103910007093EF078093F0079093F1078AEB97E09D
:103920000E945E1540E050E068EC72E48AEB97E09C
:103930000E947E1720E030E048EC52E460918E0750
:1039400070918F0780919007909191070E946C224F
:10395000882309F453C080E090E0A8ECB2E480939F
:103960008E0790938F07A0939007B093910780E004
:1039700090E4ACE1B6E48093B6079093B707A093C8
:10398000B807B093B9078091AA079091AB07A091AF
:10399000AC07B091AD07181619061A061B0674F588
:1039A00060918A0770918B0780918C0790918D07A9
:1039B0009B01AC010E94D0236B017C0160919207B6
:1039C0007091930780919407909195079B01AC01AA
:1039D0000E9400229B01AC01C701B6010E94712226
:1039E0000E94E3226093AA077093AB078093AC0711
:1039F0009093AD0786E797E00E945E1540E050E0A7
:103A000068EC72E486E797E00E947E178EEF97E0FD
:103A10000E94BE088AEB97E00E94011886E797E0B3
:103A20000E9401180E948E11F1CFAF92BF92CF92E7
:103A3000DF92EF92FF920F931F93CF93DF93109239
:103A40009D0410929C0488EE93E0A0E0B0E0809387
:103A50009E0490939F04A093A004B093A10426E435
:103A600032E030939B0420939A0410922F07109217
:103A70002E078093300790933107A0933207B093BD
:103A80003307E6E5F2E0F0932D07E0932C0728EEEC
:103A900036E0309339072093380724EA36E0309334
:103AA0003B0720933A0725EC30E030933D07209305
:103AB0003C0724EC30E030933F0720933E0720EC96
:103AC00030E0309341072093400721EC30E0309301
:103AD00043072093420722EC30E0309345072093C0
:103AE000440726EC30E0309347072093460764E014
:103AF0006093480753E05093490747E040934A07D3
:103B000035E030934B0721E020934C071092850657
:103B1000109284068093860690938706A093880669
:103B2000B0938906F0938306E0938206CEE3D6E055
:103B3000D0938F06C0938E06CAEFD5E0D09391063E
:103B4000C0939006CDECD0E0D0939306C09392063C
:103B5000CCECD0E0D0939506C0939406C8ECD0E0AE
:103B6000D0939706C093960609EC10E0109399063F
:103B7000009398060AEC10E010939B0600939A06B7
:103B80000EEC10E010939D0600939C0660939E0639
:103B900050939F064093A0063093A1062093A2065F
:103BA0001092DB051092DA058093DC059093DD0519
:103BB000A093DE05B093DF05F093D905E093D80517
:103BC00004E915E01093E5050093E40500E515E030
:103BD0001093E7050093E60505ED10E01093E90565
:103BE0000093E80504ED10E01093EB050093EA055F
:103BF00000ED10E01093ED050093EC0501ED10E0F1
:103C00001093EF050093EE0502ED10E01093F1051F
:103C10000093F00506ED10E01093F3050093F20514
:103C20006093F4055093F5054093F6053093F7053E
:103C30002093F805109231051092300580933205DB
:103C400090933305A0933405B0933505F0932F0579
:103C5000E0932E058AEE94E090933B0580933A051D
:103C600086EA94E090933D0580933C0585E391E0DE
:103C700090933F0580933E0584E391E09093410546
:103C80008093400580E391E0909343058093420543
:103C900081E391E0909345058093440582E391E0B0
:103CA000909347058093460586E391E090934905FC
:103CB0008093480560934A0550934B0540934C050B
:103CC00030934D0520934E0560E686EF9CE00E9400
:103CD000531B61E688EB9CE00E94531B8091220DF0
:103CE00081111EC01092220DD0931E0DC0931D0D88
:103CF00086EF9CE09093210D8093200D88E08093C7
:103D0000170D8DE080931A0D8AE08093180D89E0DD
:103D10008093190D8BE080931B0D8CE080931C0D1C
:103D200083E19DE09093B70C8093B60C8091320DA7
:103D3000811121C081E08093320D88EC90E0909356
:103D40002E0D80932D0D86EF9CE09093310D809386
:103D5000300D82E08093270D87E080932A0D84E068
:103D60008093280D83E08093290D85E080932B0DAF
:103D700086E080932C0D83E29DE09093B50C8093B8
:103D8000B40C8091E40C811120C01092E40C88ECFA
:103D900090E09093E00C8093DF0C88EB9CE0909394
:103DA000E30C8093E20C88E08093D90C8DE0809343
:103DB000DC0C8AE08093DA0C89E08093DB0C8BE0EA
:103DC0008093DD0C8CE08093DE0C85ED9CE090937D
:103DD000B30C8093B20C8091F40C811121C081E06E
:103DE0008093F40C88EC90E09093F00C8093EF0CAF
:103DF00088EB9CE09093F30C8093F20C82E080932C
:103E0000E90C87E08093EC0C84E08093EA0C83E07B
:103E10008093EB0C85E08093ED0C86E08093EE0CB4
:103E200085EE9CE09093B10C8093B00C80EB92E017
:103E30009093FF078093FE078CE297E09093010830
:103E40008093000880E091EEA0E0B0E0809302084B
:103E500090930308A0930408B09305081092840C73
:103E600088E992E09093930C8093920C1092940CBA
:103E70001092950C1092960C1092970C10929D0C2B
:103E800010929C0C10929E0C10929F0C1092A00C01
:103E90001092A10C1092A70C1092A60C1092A80CD4
:103EA0001092A90C1092AA0C1092AB0C1092AF0CAD
:103EB0001092AE0C86E19CE0E8E4FCE0DC011D928F
:103EC0001D92EA17FB07D9F72AE73CE011921192FD
:103ED0002E173F07D9F7A6E1B8E0E6E1FAE01D9218
:103EE0002AE0A631B207D9F711928E179F07E1F7A2
:103EF00010921208109213081092140810921508CC
:103F00008EE7A82E82E0B82EB092BB07A092BA0727
:103F10001092BD071092C6071092C7071092C807EB
:103F20001092C9071092CA071092CB071092CC07C3
:103F30001092CD071092CE071092CF071092D007A3
:103F40001092D107C12CD12C90E8E92E9FE3F92ED5
:103F5000C092D207D092D307E092D407F092D5074F
:103F60001092D6071092D7071092D8071092D9074F
:103F7000C092DA07D092DB07E092DC07F092DD070F
:103F80001092DE071092DF071092E0071092E1070F
:103F9000C1E0D0E0D093E707C093E6071FEF10938E
:103FA000E9071092E2071092E3071092E4071092DB
:103FB000E5071092BE071092BF071092C00710923B
:103FC000C10787EE96E09093EB078093EA078BECAE
:103FD00096E09093ED078093EC071092EE07109215
:103FE000EF071092F0071092F1071092F20710926B
:103FF000F3071092F4071092F5071092F60710924B
:10400000F7071092F8071092F907C092FA07D092BA
:10401000FB07E092FC07F092FD071092BC0710929C
:10402000C2071092C3071092C4071092C507B701C8
:10403000A6018AEB97E00E947E17B0927707A092C4
:1040400076071092790710928207109283071092D8
:1040500084071092850710928607109287071092A6
:1040600088071092890710928A0710928B07109286
:104070008C0710928D07C0928E07D0928F07E09226
:104080009007F09291071092920710929307109266
:10409000940710929507C0929607D0929707E092E6
:1040A0009807F092990710929A0710929B07109226
:1040B0009C0710929D07D093A307C093A20710936B
:1040C000A50710929E0710929F071092A0071092CA
:1040D000A10710927A0710927B0710927C0710922A
:1040E0007D078FEA96E09093A7078093A60783E960
:1040F00096E09093A9078093A8071092AA071092C0
:10410000AB071092AC071092AD071092AE07109259
:10411000AF071092B0071092B1071092B207109239
:10412000B3071092B4071092B507C092B607D092A9
:10413000B707E092B807F092B9071092780710928B
:104140007E0710927F071092800710928107B701B7
:10415000A60186E797E00E947E178AEB92E0909393
:104160004F0780934E0782E792E090935507809324
:10417000540786E692E09093570780935607109273
:1041800058071092590710925A0710925B07109225
:104190005C0710925D0710925E0710925F07109205
:1041A0006007109261071092620710926307909364
:1041B0006507809364071092660710926707109254
:1041C00068071092690710926A0710926B071092A5
:1041D0006C0710926D0710926E0710926F07109285
:1041E0007007109271078BE29CE0909373078093A5
:1041F0007207D0937507C093740781E394E090939E
:10420000530780935207DF91CF911F910F91FF9039
:10421000EF90DF90CF90BF90AF900895F8940C94FA
:1042200054266F927F928F929F92AF92BF92CF92BD
:10423000DF92EF92FF920F931F93CF93DF9300973C
:1042400089F4CB01DF91CF911F910F91FF90EF90F7
:10425000DF90CF90BF90AF909F908F907F906F90A6
:104260000C948324FC01E60FF71F9C0122503109B6
:10427000E217F30708F4A9C0EC01D9010D911C91D4
:10428000119706171707B0F00530110508F49BC009
:10429000C80104978617970708F495C002501109C2
:1042A000061B170B019311936D937C93CF010E9412
:1042B0001B2589C05B01A01AB10A4C01800E911E1A
:1042C000A0919B0DB0919C0D612C712CE12CF12CD7
:1042D000109709F446C08D919C911197A815B905C6
:1042E000B1F56C0142E0C40ED11CCA14DB0478F1B4
:1042F0004C018A189B08640142E0C40ED11C12963E
:10430000BC9012971396AC91B5E0CB16D10440F057
:10431000B282A38391828082D9016D937C9309C07C
:104320000E5F1F4F800F911FF90191838083EB2D4A
:10433000FA2FE114F10431F0D7011396FC93EE93B8
:10434000129741C0F0939C0DE0939B0D3CC0681602
:10435000790608F43C017D0112960D90BC91A02DC8
:10436000B7CF8091990D90919A0D88169906E1F436
:1043700066167706C8F480910002909101020097BA
:1043800041F48DB79EB74091040250910502841B01
:10439000950BE817F907C8F4F0939A0DE093990D7F
:1043A000F901718360830FC0CB010E9483247C01DB
:1043B000009759F0A801BE010E94F621CE010E948B
:1043C0001B25C70104C0CE0102C080E090E0DF9150
:1043D000CF911F910F91FF90EF90DF90CF90BF9002
:1043E000AF909F908F907F906F900895FB01DC01BC
:1043F00002C001900D9241505040D8F70895505896
:10440000BB27AA270E9417220C9491230E94832382
:1044100038F00E948A2320F039F49F3F19F426F4E3
:104420000C9480230EF4E095E7FB0C947A23E92F9B
:104430000E94A22358F3BA176207730784079507EF
:1044400020F079F4A6F50C94C4230EF4E0950B2E1D
:10445000BA2FA02D0B01B90190010C01CA01A001D6
:104460001124FF27591B99F0593F50F4503E68F131
:104470001A16F040A22F232F342F4427585FF3CF72
:10448000469537952795A795F0405395C9F77EF443
:104490001F16BA0B620B730B840BBAF09150A1F08C
:1044A000FF0FBB1F661F771F881FC2F70EC0BA0F12
:1044B000621F731F841F48F4879577956795B7959A
:1044C000F7959E3F08F0B0CF9395880F08F0992795
:1044D000EE0F9795879508950E94562308F481E082
:1044E00008950E9485220C9491230E948A2358F0FB
:1044F0000E94832340F029F45F3F29F00C947A2333
:1045000051110C94C5230C9480230E94A22368F3BC
:104510009923B1F3552391F3951B550BBB27AA277C
:1045200062177307840738F09F5F5F4F220F331FB6
:10453000441FAA1FA9F335D00E2E3AF0E0E832D07E
:1045400091505040E695001CCAF72BD0FE2F29D081
:10455000660F771F881FBB1F261737074807AB0753
:10456000B0E809F0BB0B802DBF01FF2793585F4FC8
:104570003AF09E3F510578F00C947A230C94C523B1
:104580005F3FE4F3983ED4F3869577956795B795AA
:10459000F7959F5FC9F7880F911D9695879597F9B5
:1045A0000895E1E0660F771F881FBB1F621773072E
:1045B0008407BA0720F0621B730B840BBA0BEE1F43
:1045C00088F7E09508950E94EA226894B1110C944E
:1045D000C52308950E94AA2388F09F5798F0B92F09
:1045E0009927B751B0F0E1F0660F771F881F991F28
:1045F0001AF0BA95C9F714C0B13091F00E94C423E3
:10460000B1E008950C94C423672F782F8827B85FF2
:1046100039F0B93FCCF3869577956795B395D9F77F
:104620003EF490958095709561957F4F8F4F9F4F89
:104630000895E89409C097FB3EF490958095709595
:1046400061957F4F8F4F9F4F9923A9F0F92F96E9DE
:10465000BB279395F695879577956795B795F11153
:10466000F8CFFAF4BB0F11F460FF1BC06F5F7F4FF0
:104670008F4F9F4F16C0882311F096E911C0772302
:1046800021F09EE8872F762F05C0662371F096E80B
:10469000862F70E060E02AF09A95660F771F881FDA
:1046A000DAF7880F9695879597F90895990F00087E
:1046B000550FAA0BE0E8FEEF16161706E807F907F4
:1046C000C0F012161306E407F50798F0621B730B8F
:1046D000840B950B39F40A2661F0232B242B252B10
:1046E00021F408950A2609F4A140A6958FEF811DB3
:1046F000811D089597F99F6780E870E060E0089554
:104700009FEF80EC089500240A94161617061806E9
:104710000906089500240A941216130614060506C5
:104720000895092E0394000C11F4882352F0BB0F56
:1047300040F4BF2B11F460FF04C06F5F7F4F8F4FB9
:104740009F4F089557FD9058440F551F59F05F3FF4
:1047500071F04795880F97FB991F61F09F3F79F0A3
:1047600087950895121613061406551FF2CF469525
:10477000F1DF08C0161617061806991FF1CF8695A7
:104780007105610508940895E894BB27662777278B
:10479000CB0197F908950E94562308F48FEF0895EE
:1047A0000E94E3230C9491230E94832338F00E94FB
:1047B0008A2320F0952311F00C947A230C94802303
:1047C00011240C94C5230E94A22370F3959FC1F37A
:1047D000950F50E0551F629FF001729FBB27F00DAF
:1047E000B11D639FAA27F00DB11DAA1F649F662704
:1047F000B00DA11D661F829F2227B00DA11D621F53
:10480000739FB00DA11D621F839FA00D611D221F0C
:10481000749F3327A00D611D231F849F600D211DF0
:10482000822F762F6A2F11249F5750409AF0F1F073
:1048300088234AF0EE0FFF1FBB1F661F771F881FDC
:1048400091505040A9F79E3F510580F00C947A2377
:104850000C94C5235F3FE4F3983ED4F38695779597
:104860006795B795F795E7959F5FC1F7FE2B880F82
:10487000911D9695879597F9089519F416F40C945F
:1048800080230C94A4250E94AA23B8F39923C9F38A
:10489000B6F39F57550B87FF0E94B2250024A0E670
:1048A00040EA900180585695979528F4805C660FF1
:1048B000771F881F20F026173707480730F4621B40
:1048C000730B840B202931294A2BA6951794079442
:1048D000202531254A2758F7660F771F881F20F0BB
:1048E00026173707480730F4620B730B840B200D33
:1048F000311D411DA09581F7B901842F9158880F72
:104900009695879508950F931F93CF93DF938230E9
:10491000910510F482E090E0E0919B0DF0919C0DE8
:1049200020E030E0A0E0B0E0309719F14081518103
:104930000281138148175907C8F08417950769F455
:10494000109731F012960C93129713961C9327C070
:1049500000939B0D10939C0D22C02115310519F079
:104960004217530718F49A01BD01EF01DF01F80166
:10497000DBCF21153105F9F0281B390B2430310527
:1049800080F48A819B816115710521F0FB0193837D
:10499000828304C090939C0D80939B0DFE01329600
:1049A00044C0FE01E20FF31F81939193225031091D
:1049B000398328833AC02091990D30919A0D232B89
:1049C00041F4209102023091030230939A0D20931A
:1049D000990D20910002309101022115310541F419
:1049E0002DB73EB74091040250910502241B350BB0
:1049F000E091990DF0919A0DE217F307A0F42E1BA8
:104A00003F0B2817390778F0AC014E5F5F4F241732
:104A1000350748F04E0F5F1F50939A0D4093990D44
:104A20008193919302C0E0E0F0E0CF01DF91CF915C
:104A30001F910F910895CF93DF93009709F481C0E0
:104A4000FC01329713821282A0919B0DB0919C0DB4
:104A5000109781F420813181820F931F2091990D4D
:104A600030919A0D2817390751F5F0939A0DE0937C
:104A7000990D67C0ED0120E030E0CE17DF0740F46C
:104A80004A815B819E0141155105F1F0EA01F5CFA4
:104A9000D383C28340815181840F951FC817D907E2
:104AA00059F488819981840F951F029691838083A0
:104AB0008A819B81938382832115310529F4F093A8
:104AC0009C0DE0939B0D3DC0E901FB83EA83499176
:104AD0005991C40FD51FEC17FD0761F480819181B6
:104AE000840F951F0296E9019983888382819381BF
:104AF0009B838A83E0E0F0E012968D919C9113975E
:104B0000009719F0FD01DC01F7CF8D919C91119771
:104B10009D012E5F3F4F820F931F2091990D309181
:104B20009A0D2817390769F4309729F410929C0DD3
:104B300010929B0D02C013821282B0939A0DA09323
:104B4000990DDF91CF9108959F3F31F0915020F45E
:104B5000879577956795B795880F911D9695879559
:104B600097F9089591505040660F771F881FD2F72C
:104B70000895DB018F939F930E942626BF91AF91EA
:104B8000A29F800D911DA39F900DB29F900D1124A7
:104B9000089597FB072E16F4009407D077FD09D0EF
:104BA0000E94312607FC05D03EF4909581959F4FD9
:104BB0000895709561957F4F0895A1E21A2EAA1B62
:104BC000BB1BFD010DC0AA1FBB1FEE1FFF1FA217BD
:104BD000B307E407F50720F0A21BB30BE40BF50BBA
:104BE000661F771F881F991F1A9469F76095709543
:104BF000809590959B01AC01BD01CF010895052ED4
:104C000097FB1EF400940E94162657FD07D00E94C1
:104C1000DD2507FC03D04EF40C94162650954095E4
:104C2000309521953F4F4F4F5F4F08959095809558
:104C3000709561957F4F8F4F9F4F0895EE0FFF1F27
:104C4000881F8BBF0790F691E02D19940E9445268E
:104C5000A59F900DB49F900DA49F800D911D1124D0
:104C60000895AA1BBB1B51E107C0AA1FBB1FA617B3
:104C7000B70710F0A61BB70B881F991F5A95A9F705
:104C800080959095BC01CD010895A29FB001B39F7E
:104C9000C001A39F700D811D1124911DB29F700D45
:0C4CA000811D1124911D0895F894FFCF90
:104CAC0000009D0D2000726F7373657269616C5FFB
:104CBC006D7367732F526571756573745061726192
:104CCC006D0000000000030E6A036703640300001C
:104CDC000000D10D0E030B03080301030206040CA4
:104CEC000809000000002717FA16F216DE16CF1678
:104CFC00CE160000000071105617FA10BE10DE1010
:104D0C00B3100000000047067005FF02FC02000013
:104D1C00000077069A0506020302000000001F122D
:104D2C00F111B91129101310E20FC10F8D0F6C0F77
:104D3C00160FDE0E00000000F80C0307050302033B
:104D4C0000000000B811B811B811B8110000000033
:104D5C000D02BE08FE0100000000B60509020602A5
:104D6C00030200000000A4045E045B0458043966CE
:104D7C0031393566383831323436666466613237EB
:104D8C003938643164336565626361383461006756
:104D9C00656F6D657472795F6D7367732F54776986
:104DAC007374004D6573736167652066726F6D2057
:104DBC006465766963652064726F707065643A200F
:104DCC006D657373616765206C61726765722074C1
:104DDC0068616E206275666665722E0034613834C7
:104DEC003262363566343133303834646332623192
:104DFC003066623438346561376631370067656F09
:104E0C006D657472795F6D7367732F566563746F1C
:104E1C007233003966306539386264613635393839
:104E2C0031393836646466353361666137613430E4
:104E3C00653439003131616264373331633235396D
:104E4C003333323631636436313833626431326431
:104E5C003632393500726F7373657269616C5F6DD0
:104E6C007367732F4C6F6700306164353166383867
:104E7C00666334343839326638633130363834301E
:104E8C00373736343630303500726F73736572696C
:104E9C00616C5F6D7367732F546F706963496E66D5
:104EAC006F006364373136366337346335353263BC
:104EBC003331316662636332666535613762633202
:104ECC003839007374645F6D7367732F54696D6543
:104EDC00002F776865656C5F696E737472756374A7
:064EEC00696F6E73000007
:00000001FF
